:1000000016EF00F00000000000EF00F0000000001C
:0A0010000000000000000000F3D71C
:10001C000900F5CFE6FF0006FBE10106F9E112004D
:10002C00010E156E166A020E176E186A030E196E03
:10003C001A6A1B6A1C6A1D6A1E6A949094929580B7
:10004C009582010E8314016E0150010A47E11DC017
:10005C0000F01EC001F0003600900136150E002491
:10006C00E96E000E0120EA6EEECF1BF0EECF1CF015
:10007C00800E006E800E1C18005C02E11B50000804
:10008C0022E28280820E0C6EDD0E0D6E0D2EFED7DE
:10009C000C2EFCD7000000008290820E0C6EDD0E40
:1000AC000D6E0D2EFED70C2EFCD700000000010E9D
:1000BC008314016E0150010A01E1F9D7010E1B5E98
:1000CC00000E1C5AD5D7000E1E1802E1020E1D1888
:1000DC0003E11D6A1E6A02D01D4A1E2AB2D7FFD741
:020000040030CA
:0D000100021F1EFF8381FF0FC00FE00F40A4
:00000001FF
