:1000000066EF00F00000000000EF00F000000000CC
:0A0010000000000000000000F3D71C
:10001C00156A166AC00E156E000E166E800E161836
:10002C00006E800E005C02E1030E155C1AE315C035
:10003C0082FF020E0B6E040E0C6EBA0E0D6E0D2EA0
:10004C00FED70C2EFCD70B2EFAD700001632153229
:10005C00169E16BC168E16321532169E16BC168EB1
:04006C00DDD71200CA
:100070000900F5CFE6FF0006FBE10106F9E11200F9
:10008000156A166A030E156E000E166E800E006E4F
:10009000800E1618005C02E11550C00816E315C06A
:1000A00082FF020E0B6E040E0C6EBA0E0D6E0D2E3C
:1000B000FED70C2EFCD70B2EFAD700001536159064
:0C00C0001636153615901636E1D71200E2
:0A00CC00946AD8DFA5DFFDD7FFD747
:020000040030CA
:0D000100021F1EFF8381FF0FC00FE00F40A4
:00000001FF
