:10000000F1EF09F00000000000EF00F00000000038
:0A0010000000000000000000F3D71C
:10001C000B820BAE18EF00F00368026801680068F1
:08002C000A360232FF0E120039
:0E003400026A016A006A086A036A000E12007E
:100042000B840BAE2CEF00F0010E036E026A016A04
:0A005200006A0A360232FF0E1200A7
:08005C000AAE029E000E120024
:0A006400210E0D6E0D2EFED71200C6
:10006E000F0E0C6E470E0D6E0D2EFED70C2EFCD7FE
:06007E000000000012006A
:0600840000000000120064
:10008A000CB087EF00F00CA22DEF01F00E6A000E03
:10009A0002649EEF00F0F00E0214D8A469EF00F09B
:1000AA00023A01380F0B02260138F00B016E0038B4
:1000BA000F0B01260038F00B006E08380F0B0026D4
:1000CA000838F00B086E0E84D89002BE82EF00F05A
:1000DA0008360036013602360E2A02BE82EF00F0DA
:1000EA0008360036013602360E2A02BE82EF00F0CA
:1000FA0008360036013602360E2A0E50036423EF04
:10010A0001F0035E0BBC08AE28EF01F0D880800E28
:10011A0008640030000E002201220222D8A028EF33
:10012A0001F0023201320032034A2DEF01F028EFCA
:10013A0001F001C002F000C001F008C000F0086A36
:10014A00000E0E860264D5EF00F0F00E0214D8A459
:10015A00BDEF00F0023A01380F0B02260138F00B0E
:10016A00016E00380F0B01260038F00B006E0E846A
:10017A00D89002BE82EF00F00036013602360E2A0F
:10018A0002BE82EF00F00036013602360E2A02BEA7
:10019A0082EF00F00036013602360E2A82EF00F0B6
:1001AA0001C002F000C001F0006A000E0E960E882F
:1001BA00026402EF01F0F00E0214D8A4EDEF00F091
:1001CA00023A01380F0B02260138F00B016E0E8439
:1001DA00D89002BE82EF00F0013602360E2A02BE25
:1001EA0082EF00F0013602360E2A02BE82EF00F0DC
:1001FA00013602360E2A82EF00F001C002F0016ACF
:10020A00000E0E86026432EF01F0F00E0214D8A43A
:10021A0011EF01F0023A0E84D89002BE82EF00F08C
:10022A0002360E2A02BE82EF00F002360E2A02BE03
:10023A0082EF00F002360E2A82EF00F0010E0C6EF9
:10024A00FBDE35EF01F0020E0C6E03DF35EF01F035
:10025A00040E0C6EDEDE35EF01F0080E0C6EE5DEE4
:02026A00120080
:10026C003FBE02D08C9E01D08C8E3FBC02D08C9CA9
:10027C0001D08C8C3FBA02D08C9A01D08C8A3FB8BA
:10028C0002D08C9801D08C8829B002D08D8401D0FA
:10029C008D948D82F1DE8D923FB602D08C9E01D072
:1002AC008C8E3FB402D08C9C01D08C8C3FB202D08F
:1002BC008C9A01D08C8A3FB002D08C9801D08C885B
:1002CC0029B002D08D8401D08D948D82D5DE8D9293
:0C02DC0029A002D0C6DE01D0BFDE120057
:0802E8000B6A0B86FF0E1200E9
:1002F000025006180E6E086A096A0B6A03500764FA
:100300006BEF02F006500A6E068E028E03500B6EE3
:100310000750036E000E0B64BBEF01F00B50075E3D
:10032000D8B45CEF02F0070E07642AEF02F0075E14
:1003300000C008F001C000F002C001F0026A074EE0
:100340005CEF02F00764FFEF01F0075E00C008F009
:1003500001C000F0016A074E5CEF02F00764DDEFB8
:1003600001F0075E00C008F0006A074E5CEF02F083
:100370000764C4EF01F00AC002F005C001F004C038
:1003800000F0086A85EF03F0030E0764CFEF01F079
:10039000075E08380F0B086E074E5CEF02F0D8902E
:1003A0000832074E5CEF02F0D8900832074E5CEF3F
:1003B00002F0D89008325CEF02F0030E0764EEEF13
:1003C00001F0075E08380F0B086E0038F00B0826A6
:1003D00000380F0B006E074E5CEF02F0D890003231
:1003E0000832074E5CEF02F0D89000320832074E18
:1003F0005CEF02F0D890003208325CEF02F0030E9E
:10040000076416EF02F0075E08380F0B086E00381D
:10041000F00B082600380F0B006E0138F00B002699
:1004200001380F0B016E074E5CEF02F0D8900132DD
:1004300000320832074E5CEF02F0D89001320032F1
:100440000832074E5CEF02F0D890013200320832D9
:100450005CEF02F0030E076447EF02F0075E083816
:100460000F0B086E0038F00B082600380F0B006EDB
:100470000138F00B002601380F0B016E0238F00B2B
:10048000012602380F0B026E074E5CEF02F0D89087
:100490000232013200320832074E5CEF02F0D8908F
:1004A0000232013200320832074E5CEF02F0D8907F
:1004B0000232013200320832096A000E0EAE50EFED
:1004C00003F0081E001E011E021E082A002201223F
:1004D000022250EF03F00750D8A471EF02F085EF2D
:1004E00003F0096A02C00AF0028E068E0750035C10
:1004F000076ED8B443EF03F0070E076411EF03F063
:10050000075E0450096E0550046E0650056E066ABB
:10051000074E43EF03F0070E0764E6EF02F0075EB5
:100520000450096E0550046E056A074E43EF03F050
:10053000070E0764C4EF02F0075E0450096E046AF8
:10054000074E43EF03F0070E0764ABEF02F00AC05B
:1005500002F085EF03F0030E0764B6EF02F0075ECA
:1005600009380F0B096E074E43EF03F0D89009329C
:10057000074E43EF03F0D8900932074E43EF03F0E4
:10058000D890093243EF03F0030E0764D5EF02F071
:10059000075E09380F0B096E0438F00B0926043882
:1005A0000F0B046E074E43EF03F0D890043209326C
:1005B000074E43EF03F0D89004320932074E43EF61
:1005C00003F0D8900432093243EF03F0030E0764BE
:1005D000FDEF02F0075E09380F0B096E0438F00BCF
:1005E000092604380F0B046E0538F00B0426053875
:1005F0000F0B056E074E43EF03F0D890053204321F
:100600000932074E43EF03F0D89005320432093225
:10061000074E43EF03F0D89005320432093243EF1E
:1006200003F0030E07642EEF03F0075E09380F0B8B
:10063000096E0438F00B092604380F0B046E0538D8
:10064000F00B042605380F0B056E0638F00B052657
:1006500006380F0B066E074E43EF03F0D8900632B4
:10066000053204320932074E43EF03F0D8900632C8
:10067000053204320932074E43EF03F0D8900632B8
:10068000053204320932086A000E0EAE50EF03F054
:10069000091E041E051E061E092A04220522062222
:1006A000095008260450002205500122065002225B
:1006B0000EBE67EF03F0D8A076EF03F002320132EE
:1006C00000320832033E76EF03F080EF03F0D8B03B
:1006D0007BEF03F0000E081E001E011E021E082AFA
:1006E0000022012202220A7E7BEF03F0010E0C6E33
:1006F000CCDC87EF03F0020E0C6EC7DC87EF03F053
:10070000040E0C6E8BDC87EF03F0000E0C6E1200F3
:100710000B800BAE94EF03F0026A0AAEFF0E026E7E
:0C072000016E006E0A360232FF0E12005D
:0C072C0029903EC03FF09CDD29801200A7
:100738000050086E0150006E0250016E0350026EA8
:10074800036A0B6A0C6A9E0E036E0A6A020E0C6E2E
:0407580098DC120017
:10075C000450000A12E10550000A0FE10650000A8D
:10076C000CE10750000A09E1FF0E006EFF0E016E4E
:10077C007F0E026EFF0E036EA7D0086A096A07503F
:10078C00D8B459EF04F00350D8B45DEF04F0025024
:10079C0006180A6E028E068E0E6A02C008F001C0A0
:1007AC000CF000C00DF004500D5E0550D8A0053CB7
:1007BC000C5E0650D8A0063C085E086A0C6A0D6AEE
:1007CC00D8A0F0EF03F0D890023201320032083298
:1007DC00010E0E6E0750035ED8A0FDEF03F07E0EE7
:1007EC000E240326D8B062EF04F003EF04F07E0E63
:1007FC000E240326D8A067EF04F0180E0B6E0D36EE
:10080C000C3608360036013602360E360450005EC1
:10081C000550D8A0053C015E0650D8A0063C025EEF
:10082C0006340E120EA01EEF04F00D8029EF04F01A
:10083C00045000260550D8B0053C01260650D8B00F
:10084C00062802260D900B2E05EF04F04FEF04F056
:10085C00D8900036013602360E360450005E055034
:10086C00D8A0053C015E0650D8A0063C025E0634BA
:10087C000E10010B0D26D8B00C2AD8B4082AD8A417
:10088C004FEF04F008320C320D32032AD8B462EF69
:10089C0004F00AAE089E0850026E0C50016E0D500A
:1008AC00006E6AEF04F0010E19DD6AEF04F0020E1F
:1008BC001AEC00F06AEF04F0040E0EEC00F06AEF94
:0A08CC0004F0080E21EC00F0120009
:1008D600220E0C6E086A096A0A6A0B6A0C06D8B4FC
:1008E6001FD0D8900B320A32093208320332023254
:1008F60001320032D8A0F2D70C06D8B409D0045081
:1009060008260550092206500A2207500B22EAD76C
:10091600045008260550092206500A2207500B22C9
:020926001200BD
:1009280000C008F00B6A0C6A9E0E036E0A6A026A1F
:0E093800016A006A020E0C6E45EC00F012001F
:10094600086A096A000E0762036428EF05F0025080
:1009560006180A6E075003267E0ED8A0B9EF04F0DB
:10096600035ED8B02DEF05F0BDEF04F0035ED8A00E
:1009760032EF05F0028E068E02C00EF001C00BF0BB
:1009860000C00DF000500402F4CF0CF00150050237
:10099600F4CF00F0F3CF08F00402F3500C26F45025
:1009A6000822000E00220D500502F3500C26F450CA
:1009B6000822000E002202500402F3500826F450CA
:1009C600002202500502016A000E0122F3500026A1
:1009D600F45001220D500602F3500826F45000226E
:1009E600026A000E012202220B500602F350002674
:1009F600F4500122000E02220E500602F350012688
:100A0600F450022202BE10EF05F008360036013619
:100A160002360306D8B432EF05F023EF05F0D8808E
:100A2600800E08640030000E002201220222D8A0A7
:100A360023EF05F0023201320032034A2DEF05F0B2
:100A46000AAE029E000E35EF05F0010E1AEC00F01C
:100A560035EF05F0020E0EEC00F035EF05F0040E52
:060A660021EC00F012007B
:100A6C000B6A0A6A096A086A0E6A0334083604506B
:100A7C00085E0550D8A0053C095E0650D8A0063C7F
:100A8C000A5E0750D8A0073C0B5EE86AD8A0010E9E
:100A9C000E5E0336070E0C6E0334083609360A3622
:100AAC000B360E36045003A012D0085E0550D8A0A9
:100ABC00053C095E0650D8A0063C0A5E0750D8A03B
:100ACC00073C0B5EE86AD8A0010E0E5E11D008261A
:100ADC000550D8B0053C09260650D8B0063C0A266D
:100AEC000750D8B0073C0B26E86AD8B0010E0E268A
:100AFC0003360C2ED1D70234083609360A360B369B
:100B0C000E36045003A012D0085E0550D8A0053C48
:100B1C00095E0650D8A0063C0A5E0750D8A0073CD8
:100B2C000B5EE86AD8A0010E0E5E11D008260550A7
:100B3C00D8B0053C09260650D8B0063C0A2607500A
:100B4C00D8B0073C0B26E86AD8B0010E0E26023648
:100B5C00070E0C6E0234083609360A360B360E3682
:100B6C00045002A012D0085E0550D8A0053C095EC6
:100B7C000650D8A0063C0A5E0750D8A0073C0B5E76
:100B8C00E86AD8A0010E0E5E11D008260550D8B028
:100B9C00053C09260650D8B0063C0A260750D8B0AA
:100BAC00073C0B26E86AD8B0010E0E2602360C2E36
:100BBC00D1D70134083609360A360B360E360450B6
:100BCC0002A012D0085E0550D8A0053C095E065064
:100BDC00D8A0063C0A5E0750D8A0073C0B5EE86A1A
:100BEC00D8A0010E0E5E11D008260550D8B0053CD9
:100BFC0009260650D8B0063C0A260750D8B0073C48
:100C0C000B26E86AD8B0010E0E260136070E0C6EC4
:100C1C000134083609360A360B360E36045001A05C
:100C2C0012D0085E0550D8A0053C095E0650D8A02D
:100C3C00063C0A5E0750D8A0073C0B5EE86AD8A0B9
:100C4C00010E0E5E11D008260550D8B0053C0926C1
:100C5C000650D8B0063C0A260750D8B0073C0B26E5
:100C6C00E86AD8B0010E0E2601360C2ED1D700340E
:100C7C00083609360A360B360E36045001A012D04F
:100C8C00085E0550D8A0053C095E0650D8A0063C6D
:100C9C000A5E0750D8A0073C0B5EE86AD8A0010E8C
:100CAC000E5E11D008260550D8B0053C092606501A
:100CBC00D8B0063C0A260750D8B0073C0B26E86A89
:100CCC00D8B0010E0E260036070E0C6E0034083616
:100CDC0009360A360B360E36045000A012D0085EC8
:100CEC000550D8A0053C095E0650D8A0063C0A5E0B
:100CFC000750D8A0073C0B5EE86AD8A0010E0E5E28
:100D0C0011D008260550D8B0053C09260650D8B09D
:100D1C00063C0A260750D8B0073C0B26E86AD8B028
:100D2C00010E0E2600360C2ED1D700B00ED004507A
:100D3C0008260550D8B0053C09260650D8B0063C0C
:0C0D4C000A260750D8B0073C0B26120006
:100D58000B6A0C6A0A6A086A0350D8B434EF07F0C1
:100D6800028E9E0E035E03BEBFEF06F0D8B4BFEF3F
:100D780006F024EF07F0036C080E035CD8A0F1EF2F
:100D880006F0036E083600C008F001C000F002C08B
:100D980001F0026A080E035CD8A0F1EF06F0036EBA
:100DA800083600C008F001C000F0016A080E035CB4
:100DB800D8A0F1EF06F0036E083600C008F0006A0C
:100DC800080E035CD8A0F1EF06F0036E0836086A37
:100DD8000350D8A4D890FDEF06F00350D8B4FDEF27
:100DE80006F0D8900232013200320832032EF5EFB5
:100DF80006F00BBC08A00EEF07F0D8A00EEF07F026
:100E0800082AD8B4002AD8B4012AD8B4022A02BEC3
:100E180038EF07F00AAE34EF07F0021E011E001E7D
:100E2800081E082AD8B4002AD8B4012AD8B4022A3D
:100E380034EF07F0026A016A006A086A34EF07F0C3
:100E48000B800BAE3DEF07F0026A0AAE3DEF07F0EC
:100E5800026E016E006E086E0A3602323DEF07F030
:100E6800000E0C6A3EEF07F0010E0C6E4DDC3EEFF3
:100E780007F0FF0E0250036E0150026E0050016E23
:060E88000850006E12008C
:080E8E00067E78EC01F0120071
:100E96000FD0800E396E19D0C00E396E16D0940E52
:100EA600396E13D0D40E396E10D0800E396E0DD037
:100EB6003950010AEEE03950020AEEE03950030AD1
:100EC600EEE03950040AEEE0F0D73A04006E3950ED
:100ED600002600C039F000C03FF036EC01F0299042
:100EE6003D6A3D503B24E96E000E3C20EA6EEE5210
:100EF6000BE03D503B24E96E000E3C20EA6EEECF3F
:0C0F06003EF011DC3D2AEDD729801200DE
:100F1200969296949598959A959C959E8D928D947D
:100F22008C9E8C9C8C9A8C9837EC00F037EC00F0FD
:100F320037EC00F08C8A8C888D8242EC00F08D9226
:100F420037EC00F08D8242EC00F08D9237EC00F02D
:100F52008D8242EC00F08D9237EC00F08C988D82FD
:100F620042EC00F08D9237EC00F08D8242EC00F002
:100F72008D928C9A8C8E8D8242EC00F08D9237ECA1
:100F820000F08C9E8C888D8242EC00F08D928C98C1
:100F92008D8242EC00F08D9237EC00F08D8242ECB3
:100FA20000F08D928C888D8242EC00F08D9237ECAD
:100FB20000F08C988D8242EC00F08D928C8E8C8C9D
:100FC2008C8A8C888D8242EC00F08D9237EC00F096
:040FD2002980120060
:100FD6000F0E346E2CC000F02DC001F02EC002F0B2
:100FE6002FC003F030C004F031C005F032C006F067
:100FF60033C007F06DDC00C02CF001C02DF002C03C
:101006002EF003C02FF0120E006E000E016E026E5F
:10101600036E2AC004F0000E056E066E076E58DCDD
:10102600220E0024056E140E0120066E000E02200C
:10103600076E2BC000F0000E016E026E036E0036C6
:10104600009001360236033605500026065001226E
:1010560007500222010E0024F66E000E0120F76EE4
:10106600000E0220F86E0900F5CF00F05ADC000EE3
:10107600046E000E056E000E066E7E0E076E60DCB8
:1010860000C035F001C036F002C037F003C038F0BA
:101096002CC000F02DC001F02EC002F02FC003F0CE
:1010A6009CEC03F035C004F036C005F037C006F0FE
:1010B60038C007F0AEEC03F000C004F001C005F044
:1010C60002C006F003C007F0000E006E000E016EAF
:1010D600000E026E8F0E036ED7DE3BDE00C015F0EB
:1010E60001C016F002C017F003C018F0190E356ED5
:1010F600000E366E34503526D8B0362A0A0E046EE7
:10110600000E056E066E076E15C000F016C001F0E3
:1011160017C002F018C003F0A6DC08C000F009C032
:1011260001F00AC002F00BC003F0300E002635C0F5
:10113600E1FF36C0E2FF00C0E6FF0A0E046E000EB5
:10114600056E066E076E15C000F016C001F017C0DA
:1011560002F018C003F087DC00C015F001C016F0DD
:1011660002C017F003C018F034C000F03406005275
:10117600BDE1010E396E010E3A6E190E3B6E000E80
:101186003C6E86DE150E0B6E4B0E0C6EBE0E0D6E95
:101196000D2EFED70C2EFCD70B2EFAD7000002D14F
:1011A600120E006E000E016E026E036E2AC004F06F
:1011B600000E056E066E076E6BEC04F0220E002420
:1011C600056E140E0120066E000E0220076E2BC05F
:1011D60000F0000E016E026E036E003600900136BE
:1011E6000236033605500024F66E06500120F76ECF
:1011F60007500220F86E0900F5CF00F00050D51216
:10120600FF0E1514D66E16C000F017C001F018C0F8
:1012160002F0036AFF0E0014D76ED3D0120E006ED2
:10122600000E016E026E036E2AC004F0000E056EFB
:10123600066E076E6BEC04F0220E0024056E140E8B
:101246000120066E000E0220076E2BC000F0000E75
:10125600016E026E036E00360090013602360336CA
:1012660005500024F66E06500120F76E0750022046
:10127600F86E0900F5CF02F002C000F000360090CB
:101286000036009000360090003600900050CD12D7
:10129600FF0E1514CE6E16C000F017C001F018C070
:1012A60002F0036AFF0E0014CF6E8BD0120E006E92
:1012B600000E016E026E036E2AC004F0000E056E6B
:1012C600066E076E6BEC04F0220E0024056E140EFB
:1012D6000120066E000E0220076E2BC000F0000EE5
:1012E600016E026E036E003600900136023603363A
:1012F60005500024F66E06500120F76E07500220B6
:10130600F86E0900F5CF00F00050CA12FF0E151452
:10131600CC6E57D0120E006E000E016E026E036E7A
:101326002AC004F0000E056E066E076E6BEC04F024
:10133600220E0024056E140E0120066E000E0220F9
:10134600076E2BC000F0000E016E026E036E0036B3
:10135600009001360236033605500024F66E06501C
:101366000120F76E07500220F86E0900F5CF02F053
:1013760002C000F000360090003600900036009063
:10138600003600900050B112FF0E1514B26E16C052
:1013960000F017C001F018C002F0036AFF0E001437
:1013A600B36E0FD02A50000AD8B4FAD62A50010AD2
:1013B600D8B434D72A50020AD8B478D72A50030AA8
:0C13C600A9E0F294F290F292F292120070
:1013D2000900F5CFE6FF0006FBE10106F9E1120084
:1013E2003FEC0AF00F0EC11293DD010E3F6E36EC98
:1013F20001F00C0E3F6E36EC01F02A6A070E2B6EDE
:10140200010E2C6E000E2D6E2E6E2F6E400E306E63
:10141200420E316E0F0E326E000E336EDBDDFFD7E1
:10147E0010EE15F0140E006E010E016E6A0EF66E71
:0E148E00140EF76E000EF86EE9EC09F0120075
:1014220000000002010402080310042005400680A7
:10143200070000010102020403080000000000008E
:101442000000000000010000010400000210000082
:101452000000000000000001010202040308000075
:08146200000000000000000082
:04146A00000000007E
:10146E004120737472696E67000000000000000076
:020000040030CA
:0D000100021F1EFF8381FF0FC00FE00F40A4
:00000001FF
