:10000000A5EF00F00000000000EF00F0000000008D
:0A0010000000000000000000F3D71C
:10001C000134083609360450085E0550D8A0053C5A
:10002C00095E003601360F0E0C6E013408360936A7
:10003C00045000A006D0085E0550D8A0053C095E0F
:10004C0005D008260550D8B0053C092600360136E7
:10005C000C2EEBD700B006D0045008260550D8B0B3
:08006C00053C0926000012000A
:100074000450000A08E10550000A05E1FF0E006E75
:100084007F0E016E57D00D6A096A086A015000108C
:10009400D8B4000C015005180A6E0ABE0D1E0B6A76
:1000A40005AE05D0041E051E042AD8B4052A01AEE7
:1000B40005D0001E011E002AD8B4012A01500510E3
:1000C4000A6E0ABE10D0A8DF0BB020D00DAE000C13
:1000D400001E011E002AD8B4012A081E091E082A7F
:1000E400D8B4092A000C05AE0DD001BE07D00150CA
:1000F400096E0050086E016A006AE8D7016A006A56
:10010400002A000C011E001E0B2ADDD7082AD8B4D1
:10011400092A0450085CD8A4D9D70550095CD8A48E
:10012400D5D7096A086A002AD8B4012A01AECED705
:060134000000FF0C1200A8
:10013A000900F5CFE6FF0006FBE10106F9E112002E
:10014A00156A166A176A186A196A1A6AF00E9416F4
:10015A00F00E8216C00E9516C00E83161B6A1C6A14
:10016A00800E006E800E1C18005C02E11B503208E3
:10017A00D8A099D0010E836E0A0E046E000E056E89
:10018A0019C000F01AC001F070DF08C000F009C001
:10019A0001F000C082FF050E0C6E520E0D6E0D2E80
:1001AA00FED70C2EFCD700000000020E836E0A0E4A
:1001BA00046E000E056E19C000F01AC001F055DF7A
:1001CA0000C082FF050E0C6E520E0D6E0D2EFED76C
:1001DA000C2EFCD700000000040E836E0A0E046E7B
:1001EA00000E056E15C000F016C001F03EDF08C013
:1001FA0000F009C001F000C082FF050E0C6E520E1D
:10020A000D6E0D2EFED70C2EFCD700000000080E36
:10021A00836E0A0E046E000E056E15C000F016C03D
:10022A0001F023DF00C082FF050E0C6E520E0D6E28
:10023A000D2EFED70C2EFCD700000000100E836E88
:10024A000A0E046E000E056E17C000F018C001F009
:10025A000CDF08C000F009C001F000C082FF050EE3
:10026A000C6E520E0D6E0D2EFED70C2EFCD7000012
:10027A000000200E836E0A0E046E000E056E17C073
:10028A0000F018C001F0F1DE00C082FF050E0C6E0E
:10029A00520E0D6E0D2EFED70C2EFCD7000000005C
:1002AA001B4A1C2A5DD7194A1A2A000E1A1802E19B
:1002BA003C0E191804E1196A1A6A154A162A000E20
:1002CA00161802E13C0E151804E1156A166A174A57
:1002DA00182A000E181802E1180E171802E1176AF8
:0602EA00186A3CD7FFD7A3
:020000040030CA
:0D000100021F1EFF8381FF0FC00FE00F40A4
:00000001FF
