:100000005AEF0CF0000000000DEF0CF000000000B3
:0C00100000000000000000003AEF0CF0BF
:10001C000B840BAE19EF00F0010E036E026A016A3D
:0A002C00006A0A360232FF0E1200CD
:080036000AAE029E000E12004A
:10003E000B820BAE29EF00F00368026801680068BE
:08004E000A360232FF0E120017
:0E005600026A016A006A086A036A000E12005C
:080064000B6A0B86FF0E12006F
:10006C000CB078EF00F00CA21EEF01F00E6A000E3F
:10007C0002648FEF00F0F00E0214D8A45AEF00F0D7
:10008C00023A01380F0B02260138F00B016E0038D2
:10009C000F0B01260038F00B006E08380F0B0026F2
:1000AC000838F00B086E0E84D89002BE73EF00F087
:1000BC0008360036013602360E2A02BE73EF00F007
:1000CC0008360036013602360E2A02BE73EF00F0F7
:1000DC0008360036013602360E2A0E50036414EF31
:1000EC0001F0035E0BBC08AE19EF01F0D880800E56
:1000FC0008640030000E002201220222D8A019EF61
:10010C0001F0023201320032034A1EEF01F019EF06
:10011C0001F001C002F000C001F008C000F0086A54
:10012C00000E0E860264C6EF00F0F00E0214D8A486
:10013C00AEEF00F0023A01380F0B02260138F00B3B
:10014C00016E00380F0B01260038F00B006E0E8488
:10015C00D89002BE73EF00F00036013602360E2A3C
:10016C0002BE73EF00F00036013602360E2A02BED4
:10017C0073EF00F00036013602360E2A73EF00F0F2
:10018C0001C002F000C001F0006A000E0E960E884D
:10019C000264F3EF00F0F00E0214D8A4DEEF00F0CE
:1001AC00023A01380F0B02260138F00B016E0E8457
:1001BC00D89002BE73EF00F0013602360E2A02BE52
:1001CC0073EF00F0013602360E2A02BE73EF00F018
:1001DC00013602360E2A73EF00F001C002F0016AFC
:1001EC00000E0E86026423EF01F0F00E0214D8A468
:1001FC0002EF01F0023A0E84D89002BE73EF00F0C9
:10020C0002360E2A02BE73EF00F002360E2A02BE30
:10021C0073EF00F002360E2A73EF00F0010E0C6E35
:10022C00F7DE26EF01F0020E0C6EFFDE26EF01F07A
:10023C00040E0C6EFEDE26EF01F0080E0C6E05DFD0
:02024C0012009E
:10024E000C6A0E6A0250D8A440EF01F001C002F011
:10025E0000C001F0006A0E860250D8A440EF01F0F3
:10026E0001C002F0016A0E960E880250D8B452EF09
:10027E0001F00E50035ED8A4D8A057EF01F0D8902D
:10028E0002BE5CEF01F0003601360236032E47EF58
:10029E0001F057EF01F0010E0C6ED6DE5FEF01F0AC
:1002AE00020E0C6EB4DE5FEF01F0040E0C6EBCDEBF
:0202BE0012002C
:1002C0000B800BAE6CEF01F0026A0AAEFF0E026EFD
:0C02D000016E006E0A360232FF0E1200B2
:1002DC0000C008F00150006E016A026A036A0B6AE2
:1002EC000C6A016A026A036A960E036E0A6A00AE11
:1002FC0086EF01F0081E001E082AD8B4002A0A8EC8
:10030C0000C001F008C000F0086A026A9ADF12000F
:10031C000B6A0C6A0A6A086A0350D8B416EF02F02A
:10032C00028E9E0E035E03BEA1EF01F0D8B4A1EFC6
:10033C0001F006EF02F0036C080E035CD8A0D3EFBB
:10034C0001F0036E083600C008F001C000F002C0D6
:10035C0001F0026A080E035CD8A0D3EF01F0036E23
:10036C00083600C008F001C000F0016A080E035CFA
:10037C00D8A0D3EF01F0036E083600C008F0006A75
:10038C00080E035CD8A0D3EF01F0036E0836086AA0
:10039C000350D8A4D890DFEF01F00350D8B4DFEFAE
:1003AC0001F0D8900232013200320832032ED7EF1E
:1003BC0001F00BBC08A0F0EF01F0D8A0F0EF01F0B9
:1003CC00082AD8B4002AD8B4012AD8B4022A02BE0A
:1003DC001AEF02F00AAE16EF02F0021E011E001E0A
:1003EC00081E082AD8B4002AD8B4012AD8B4022A84
:1003FC0016EF02F0026A016A006A086A16EF02F050
:10040C000B800BAE1FEF02F0026A0AAE1FEF02F078
:10041C00026E016E006E086E0A3602321FEF02F099
:10042C00000E0C6A20EF02F0010E0C6E43DF20EF81
:10043C0002F0FF0E0250036E0150026E0050016E6E
:06044C000850006E1200D2
:100452000450000A12E10550000A0FE10650000A9A
:100462000CE10750000A09E1FF0E006EFF0E016E5B
:100472007F0E026EFF0E036EA4D0086A096A07504F
:10048200D8B4D4EF02F00350D8B4D8EF02F002503F
:1004920006180A6E028E068E0E6A02C008F001C0AD
:1004A2000CF000C00DF004500D5E0550D8A0053CC4
:1004B2000C5E0650D8A0063C085E086A0C6A0D6AFB
:1004C200D8A06BEF02F0D89002320132003208322B
:1004D200010E0E6E0750035ED8A078EF02F07E0E7A
:1004E2000E240326D8B0DCEF02F07EEF02F07E0E7F
:1004F2000E240326D8A0E0EF02F0180E0B6E0D3684
:100502000C3608360036013602360E360450005ECE
:100512000550D8A0053C015E0650D8A0063C025EFC
:1005220006340E120EA099EF02F00D80A4EF02F035
:10053200045000260550D8B0053C01260650D8B01C
:10054200062802260D900B2E80EF02F0CAEF02F071
:10055200D8900036013602360E360450005E055041
:10056200D8A0053C015E0650D8A0063C025E0634C7
:100572000E10010B0D26D8B00C2AD8B4082AD8A424
:10058200CAEF02F008320C320D32032AD8B4DCEF83
:1005920002F00AAE089E0850026E0C50016E0D5019
:1005A200006EE2EF02F0010E5CDDE2EF02F0020EFD
:1005B20051DDE2EF02F0040E41DDE2EF02F0080E3F
:0405C2002CDD12001A
:1005C6000050086E0150006E016A026A036A0B6AE7
:1005D6000C6A960E036E0A6A00C001F008C000F0AD
:0805E600086A026A31DE12000E
:1005EE00220E0C6E086A096A0A6A0B6A0C06D8B4E7
:1005FE001FD0D8900B320A3209320832033202323F
:10060E0001320032D8A0F2D70C06D8B409D004506B
:10061E0008260550092206500A2207500B22EAD757
:10062E00045008260550092206500A2207500B22B4
:02063E001200A8
:100640000050086E0150006E0250016E0350026EA1
:10065000036A0B6A0C6A9E0E036E0A6A020E0C6E27
:0406600005DD1200A2
:10066400086A096A000E07620364B7EF03F00250D8
:1006740006180A6E075003267E0ED8A048EF03F032
:10068400035ED8B0BBEF03F04CEF03F0035ED8A0D9
:10069400BFEF03F0028E068E02C00EF001C00BF015
:1006A40000C00DF000500402F4CF0CF0015005021C
:1006B400F4CF00F0F3CF08F00402F3500C26F4500A
:1006C4000822000E00220D500502F3500C26F450AF
:1006D4000822000E002202500402F3500826F450AF
:1006E400002202500502016A000E0122F350002686
:1006F400F45001220D500602F3500826F450002253
:10070400026A000E012202220B500602F350002658
:10071400F4500122000E02220E500602F35001266C
:10072400F450022202BE9FEF03F008360036013671
:1007340002360306D8B4BFEF03F0B2EF03F0D8805B
:10074400800E08640030000E002201220222D8A08C
:10075400B2EF03F0023201320032034ABBEF03F07E
:100764000AAE029E000EC1EF03F0010E72DCC1EF6F
:1007740003F0020E62DCC1EF03F0040E4DDC120044
:10078400086A096A100E0C6E0134083609360450E2
:10079400085E0550D8A0053C095ED8B007D00450C7
:1007A40008260550D8B0053C0926D89000360136F5
:0607B4000C2EEAD7120032
:1007BA0032D0FF0E2214D66E23C000F024C001F0FE
:1007CA0025C002F0036AFF0E0014D76EF2942FD0F0
:1007DA00FF0E2214CE6E23C000F024C001F025C003
:1007EA0002F0036AFF0E0014CF6EF29020D0FF0EC3
:1007FA002214B26E23C000F024C001F025C002F01A
:10080A00036AFF0E0014B36EF29211D0FF0E221487
:10081A00CB6EF2920CD05C50000ACBE05C50010A1D
:10082A00D7E05C50030AE3E05C50020AEFE01200F2
:10083A00F2D0240E006E000E016E026E036E60C0CE
:10084A0004F0000E056E066E076ECCDE740E0024F0
:10085A00056E190E0120066E000E0220076E61C099
:10086A0000F0000E016E026E036E00360090013633
:10087A00023603360036009001360236033605503A
:10088A0000260650012207500222020E0024F66EAC
:10089A00000E0120F76E000E0220F86E0900F5CF57
:1008AA0000F00900F5CF01F089DE000E046E000E9B
:1008BA00056E000E066E7E0E076ECFDE00C063F078
:1008CA0001C064F002C065F003C066F05CC000F0CD
:1008DA005DC001F05EC002F05FC003F0ACDE63C031
:1008EA0004F064C005F065C006F066C007F0ACDD30
:1008FA0010DD000E226E000E236E010E246E000E15
:10090A00256E0050225E0150235A0250245A035089
:10091A00255A91D0240E006E000E016E026E036EEF
:10092A0060C004F0000E056E066E076E5BDE740E84
:10093A000024056E190E0120066E000E0220076EB5
:10094A0061C000F0000E016E026E036E0036009068
:10095A000136023603360036009001360236033677
:10096A00055000260650012207500222020E0024DA
:10097A00F66E000E0120F76E000E0220F86E0900D6
:10098A00F5CF00F00900F5CF01F018DE000E046E75
:10099A00000E056E000E066E7E0E076E5EDE00C04D
:1009AA0063F001C064F002C065F003C066F06250F3
:1009BA00010F006E016A000E01228BDC63C004F095
:1009CA0064C005F065C006F066C007F046DE00C0E8
:1009DA0063F001C064F002C065F003C066F05CC059
:1009EA0000F05DC001F05EC002F05FC003F023DEDC
:1009FA0063C004F064C005F065C006F066C007F085
:100A0A0023DD87DC00C022F001C023F002C024F0FD
:100A1A0003C025F010D06050000AD8B40AD760503D
:100A2A00010AD8B406D76050030AD8B402D7605076
:080A3A00020AD8B46FD71200C4
:100A42002AD1240E006E000E016E026E036E5CC08F
:100A520004F0000E056E066E076EC8DD740E0024EB
:100A6200056E190E0120066E000E0220076E5DC093
:100A720000F0000E016E026E036E00360090013629
:100A82000236033600360090013602360336055030
:100A92000024F66E06500120F76E07500220F86E11
:100AA2000900F5CF03F0010E5C14026E02C000F0E3
:100AB200003600900036009000C001F003C000F044
:100AC200015004E000360090FF0FFBD70050D51212
:100AD200F1D0240E006E000E016E026E036E5CC039
:100AE20004F0000E056E066E076E80DD740E0024A3
:100AF200056E190E0120066E000E0220076E5DC003
:100B020000F0000E016E026E036E00360090013698
:100B1200023603360036009001360236033605509F
:100B22000024F66E06500120F76E07500220F86E80
:100B32000900F5CF03F0010E5C14026E02C000F052
:100B4200003600900036009000C001F003C000F0B3
:100B5200015004E000360090FF0FFBD70050CD1289
:100B6200A9D0240E006E000E016E026E036E5CC0F0
:100B720004F0000E056E066E076E38DD740E00245A
:100B8200056E190E0120066E000E0220076E5DC072
:100B920000F0000E016E026E036E00360090013608
:100BA200023603360036009001360236033605500F
:100BB2000024F66E06500120F76E07500220F86EF0
:100BC2000900F5CF03F0010E5C14026E02C000F0C2
:100BD200003600900036009000C001F003C000F023
:100BE200015004E000360090FF0FFBD70050CA12FC
:100BF2005EC000F000360090003600900036009093
:100C02000050CA1257D0240E006E000E016E026E02
:100C1200036E5CC004F0000E056E066E076EE6DC25
:100C2200740E0024056E190E0120066E000E0220BD
:100C3200076E5DC000F0000E016E026E036E00369C
:100C42000090013602360336003600900136023635
:100C5200033605500024F66E06500120F76E075049
:100C62000220F86E0900F5CF03F0010E5C14026E4B
:100C720002C000F0003600900036009000C001F083
:100C820003C000F0015004E000360090FF0FFBD7D4
:100C92000050B1120FD05C50000AD8B4D2D65C50CA
:100CA200010AD8B416D75C50020AD8B45AD75C509D
:060CB200030AA9E0120094
:100CB80034C0E9FF35C0EAFF000EEE14006EEECF37
:100CC80001F0000E011634C0E1FF35C0E2FF00C09C
:100CD800E6FF01C0E6FF36C0E1FF37C0E2FF5CC0B7
:100CE800E6FF000EE66E210E5D24F66E1A0EF76E14
:100CF800000EF722000EF86E000EF8220900F5CF5C
:100D080000F0001E38C0E1FF39C0E2FF00C0E6FF76
:100D1800000EE66E34C0E9FF35C0EAFFFF0EEE14A0
:100D2800006EEECF01F0FF0E011634C0E1FF35C0B2
:0C0D3800E2FF00C0E6FF01C0E6FF120071
:100D4400E80E046E030E056E5CC000F05DC001F099
:100D540017DD00C02AF0E80E046E030E056E5CC0B9
:100D640000F05DC001F00CDD08C000F009C001F026
:100D7400640E046E000E056E03DD00C020F0640EE8
:100D8400046E000E056E5CC000F05DC001F0F8DC7E
:100D940008C000F009C001F000C05EF001C05FF0BF
:100DA4000A0E046E000E056E5EC000F05FC001F016
:100DB400E7DC00C01FF00A0E046E000E056E5EC074
:100DC40000F05FC001F0DCDC08C000F009C001F0F5
:060DD40000C021F0120036
:100DDA0034C0E9FF35C0EAFF000EEE14006EEECF14
:100DEA0001F0000E011634C0E1FF35C0E2FF00C079
:100DFA00E6FF01C0E6FF36C0E1FF37C0E2FF5CC094
:100E0A00E6FF000EE66E5D1C006E38C0E1FF39C0D9
:100E1A00E2FF00C0E6FF000EE66E34C0E9FF35C00F
:100E2A00EAFFFF0EEE14006EEECF01F0FF0E011680
:100E3A0034C0E1FF35C0E2FF00C0E6FF01C0E6FFB3
:020E4A00120094
:100E4C000B6A0C6A0A6A0350D8B470EF07F0028E72
:100E5C008E0E035E03BE38EF07F0D8B438EF07F000
:100E6C0074EF07F0036C080E035CD8A04FEF07F08B
:100E7C00036E013602C001F0026A080E035CD8A0B2
:100E8C004FEF07F00136016A0350D8A4D89059EF00
:100E9C0007F00350D8B459EF07F0D8900232013262
:100EAC00032E53EF07F00BBC01A066EF07F0D8A0A0
:100EBC0066EF07F0012AD8B4022A02BE83EF07F0CE
:100ECC000AAE89EF07F0021E011E012AD8B4022ACD
:100EDC0089EF07F0026A016A89EF07F00B800BAE0D
:100EEC008DEF07F0026A0AAE8DEF07F0FF0E026E6F
:100EFC00016E0A3602328DEF07F0010E0C6E60ECBB
:100F0C0001F08FEF07F0000E0C6E8FEF07F0FF0E65
:0C0F1C000C6E0150006E0250016E1200BD
:100F280026C051F0262A14D0080E5C6E860E5D6E1F
:100F380050DF18D0100E5C6EAB0E5D6E4ADF12D01B
:100F4800200E5C6EA10E5D6E44DF0CD0266A0AD0BE
:100F58005150000AE9E05150010AECE05150020AF0
:060F6800EFE0F4D71200D7
:100F6E0054C000F055C001F056C002F057C003F057
:100F7E0058C004F059C005F05AC006F05BC007F027
:100F8E00F7EC02F000C054F001C055F002C056F06C
:100F9E0003C057F000C05CF001C05DF002C05EF00F
:100FAE0003C05FF051C060F052C061F053C062F0F8
:100FBE003DDC51C05CF052C05DF053C05EF03ADDD6
:0A0FCE0051C05CF0DDEC03F01200EE
:100FD80051C05CF052C05DF0B1DE18D0200E5C6EDE
:100FE80021C05DF065DE1ED0100E5C6E1FC05DF086
:100FF8005FDE18D0080E5C6E20C05DF059DE12D09E
:10100800040E5C6E2AC05DF053DE0CD02650000A38
:10101800E5E02650010AE8E02650020AEBE02650F7
:10102800030AEEE0E80E046E030E056E51C000F0F0
:1010380052C001F0C2EC03F00050011003E0030EAF
:10104800546E25D0640E046E000E056E51C000F07B
:1010580052C001F0C2EC03F00050011003E0020E90
:10106800536E13D00A0E046E000E056E51C000F0C8
:1010780052C001F0C2EC03F00050011003E0010E71
:10108800006E01D0006A00C053F053C054F0800EC7
:10109800006E800E54BE7F0E005C02E15450265C48
:1010A80006E22650010F006E000E016E02D0006AA3
:0810B800016A00C026F01200DD
:1010C00051C0E9FF52C0EAFFEE50EE1030E051C0CF
:1010D000E9FF52C0EAFFEECF00F0EECF01F0640E60
:1010E000046E000E056EC2EC03F008C000F009C0EB
:1010F00001F00050011003E0010E006E02D0290E35
:10110000006E51C0E9FF52C0EAFF0050EE5C006E75
:10111000000E00BEFF0EEE58016E51C0E1FF52C03E
:10112000E2FF00C0E6FF01C0E6FF006A02D0010E48
:04113000006E12003B
:08113400F28EF28CD08E120045
:10113C004ED052B002D0F19001D0F18052B002D01A
:10114C00A29001D0A2805BD052B002D0A29201D06A
:10115C00A28255D052B002D0F19401D0F18452B099
:10116C0002D0A29401D0A2844AD052B002D09F9651
:10117C0001D09F8652B002D0A29601D0A2863FD059
:10118C0052B002D09F9801D09F8852B002D0A29842
:10119C0001D0A28834D052B002D09F9A01D09F8A3D
:1011AC002ED052B002D0F09C01D0F08C52B002D0B4
:1011BC00A29C01D0A28C23D052B002D0F09E01D0C0
:1011CC00F08E52B002D0A29E01D0A28E18D05150F7
:1011DC00000AAFE05150010AB7E05150020ABAE0E0
:1011EC005150030AC2E05150040ACAE05150050A9A
:1011FC00D2E05150060AD5E05150070ADDE012004A
:10120C000B6A0A6A096A00500402F4CF09F0F3CFA2
:10121C0008F001500502F4CF0BF0F3CF0AF00050A8
:10122C000502F3500926F4500A22E86A0B220150F9
:10123C000402F3500926F4500A22E86A0B2208C073
:10124C0000F009C001F00AC002F00BC003F012005C
:10125C00516A526A536A31C0E9FF32C0EAFF31C0A9
:10126C00E1FF32C0E2FF3350EE12331C006E40C07F
:10127C00E9FF41C0EAFF40C0E1FF41C0E2FF00507E
:10128C00EE1631C0E9FF32C0EAFF31C0E1FF32C0D7
:10129C00E2FF3350EE12526A030E525C38E252C037
:1012AC0001F0010E006E015004E000360090FF0FBB
:1012BC00FBD7001E31C0E9FF32C0EAFF31C0E1FFAD
:1012CC0032C0E2FF0050EE163EC0E9FF3FC0EAFF1D
:1012DC003050EE14016E01C053F00150301801E093
:1012EC0016D052C001F0010E006E015004E0003621
:1012FC000090FF0FFBD731C0E9FF32C0EAFF31C0CD
:10130C00E1FF32C0E2FF0050EE12522AC5D7331C67
:10131C00006E31C0E9FF32C0EAFF31C0E1FF32C0DC
:10132C00E2FF0050EE1640C0E9FF41C0EAFF40C0AA
:10133C00E1FF41C0E2FF3350EE125250030A4BE082
:10134C003DD0150E5224F66E1A0EF76E000EF722D3
:10135C00000EF86E000EF8220900F5CF51F03BD0CC
:10136C00180E5224F66E1A0EF76E000EF722000EAF
:10137C00F86E000EF8220900F5CF51F02CD01B0EA0
:10138C005224F66E1A0EF76E000EF722000EF86E4F
:10139C00000EF8220900F5CF51F01DD01E0E52247C
:1013AC00F66E1A0EF76E000EF722000EF86E000E97
:1013BC00F8220900F5CF51F00ED00DD053500E0A83
:1013CC00C0E053500D0ACCE053500B0AD8E05350F8
:1013DC00070AE4E0F2D72E520AE02E50511807E02B
:1013EC002EC052F051C02EF052C051F010D02E52DF
:1013FC0006E1515204E051C02EF0006A08D02E5084
:10140C00511802E1006A03D051C000F000D0120064
:10141C00F00EBD14016E0F0E4214006E0050011040
:10142C00BD6E43C000F044C001F0E3EC02F0000ECE
:10143C00046E000E056E480E066E850E076E29ECC6
:10144C0002F000C04DF001C04EF002C04FF003C0DE
:10145C0050F0006A016A026A036A20EC03F000C0D3
:10146C0004F001C005F002C006F003C007F0000E46
:10147C00006E240E016E740E026E950E036E29EC36
:10148C0002F04DC004F04EC005F04FC006F050C045
:10149C0007F032EC03F0D4DC00C043F001C044F0A0
:1014AC0000C002F001C003F003320232039E03328B
:1014BC000232039EFF0E0214006E00C0BEFF0050ED
:1014CC00BD12020E516E020E526E536A45C000F0F0
:1014DC0046C001F047C002F048C003F020EC03F016
:1014EC0000C004F001C005F002C006F003C007F014
:1014FC00000E006E000E016E000E026E7F0E036E6B
:10150C0029EC02F08EEC01F000C054F001C055F053
:10151C0002C056F003C057F049C058F04AC059F009
:10152C004BC05AF04CC05BF01CDD9494CA94120072
:10153C000F0EC11242C03CF043C03DF044C040F01D
:10154C0045C041F046C03EF047C03FF048C031F0C6
:10155C0049C032F04AC030F04BC033F042C0E9FF12
:10156C0043C0EAFF42C0E1FF43C0E2FF4A50EE1223
:10157C0031C0E9FF32C0EAFF31C0E1FF32C0E2FF07
:10158C003350EE123EC0E9FF3FC0EAFF3EC0E1FF20
:10159C003FC0E2FF3050EE123CC0E9FF3DC0EAFF15
:1015AC003CC0E1FF3DC0E2FF3050EE12331C006E38
:1015BC0040C0E9FF41C0EAFF40C0E1FF41C0E2FF8B
:0615CC000050EE161200B3
:1015D2000F0EC1122B6A296AACDD93829384F090BC
:1015E200F092060E516E526AA8DD070E516E526AD3
:0C15F200A4DDF19AF198F086F088120058
:1015FE000900F5CFE6FF0006FBE10106F9E1120056
:10160E00426A2752D8B47DD022DE00C042F09382C7
:10161E00938471D02AD02B520CE029520AE02C5020
:10162E002D1007E0010E286E2F6ACA84828A818EE1
:10163E0000D03FD02F6A2C6A2D6A3BD02F6A2CC067
:10164E0000F02DC001F00A0E046E000E056ED7DDFF
:10165E00300E425C026E036A000E035A02500024E2
:10166E002C6E035001202D6E24D04250730AD3E00D
:10167E004250680ADFE04250300AE0E04250310A40
:10168E00DDE04250320ADAE04250330AD7E04250EF
:10169E00340AD4E04250350AD1E04250360ACEE048
:1016AE004250370ACBE04250380AC8E04250390A5D
:1016BE00C5E027D0030E275C0FE3276A2C0E516E70
:1016CE00000E526EF6DC005207E0829ACA947F0E2C
:1016DE008116010E2F6E00D007D00CD0286ACA9446
:1016EE00829A7F0E811606D04250730AF6E042505F
:1016FE00680AF4E006D02850000A8CE02850010A4F
:10170E00D9E02850010A0FE12B5205E0295203E0DF
:10171E00010E006E01D0006A005205E1286ACA94DB
:10172E00829A7F0E81162F5203E094EC07F005D0BB
:0E173E002CC051F02DC052F048DC63D71200D1
:10174C00F3DC1FD0F294020E516E43C052F0F0DC69
:10175C00F28A23D09E90516A43C052F0E9DC9D80FE
:10176C001CD09E92010E516E43C052F0E1DC9D8262
:10177C0014D0A192010E516E43C052F0D9DCA0825C
:10178C000CD04250000ADEE04250010AE3E0425025
:0C179C00020AE7E04250030AECE01200F1
:1017A8000F0EC11244C034F045C035F042C03AF0C3
:1017B80043C03BF048C038F049C039F046C036F065
:1017C80047C037F042C0E9FF43C0EAFF4A50EE1471
:1017D800006EEECF01F0000E011642C0E1FF43C0DB
:1017E800E2FF00C0E6FF01C0E6FF34C0E9FF35C0F4
:1017F800EAFF000EEE14006EEECF01F0000E0116A7
:1018080034C0E1FF35C0E2FF00C0E6FF01C0E6FFDB
:021818001200BC
:10181A0000C01EF001C01DF002C01CF003C01BF086
:10182A0004C01AF0F2CF01F00132019E0132019E8A
:10183A0001A010D0F294FF0E2214D66E23C000F03D
:10184A0024C001F025C002F0036AFF0E0014D76E0F
:10185A00F294272A1EC000F01DC001F01CC002F03D
:0A186A001BC003F01AC004F01100C7
:1018740000C019F001C018F0156ED8CF16F0E0CFF3
:1018840017F0F0CF01F001B02B70F0CF01F001326E
:10189400019E01A002D0010E29161750E06E1650C9
:1018A400D86E153A153819C000F018C001F01000B0
:1018B40016EC0DF07F0E93167F0E8116949A829A81
:1018C4000C0E426E190E436E000E446E0A0E456EE7
:1018D400000E466E476E486EE80E496E030E4A6E61
:1018E400000E4B6E000E4C6E97DD950E426E0F0E81
:1018F400436E930E446E0F0E456E830E466E0F0EAE
:10190400476E810E486E0F0E496E0F0E4A6E070E1B
:101914004B6E12DE5CDE920E426E0F0E436E950E1F
:10192400446E0F0E456E800E466E0F0E476E830E8C
:10193400486E0F0E496EC30E4A6E34DF516A050EAF
:10194400526E536AFA0E546E000E556E566E576EF2
:10195400E80E586E030E596E000E5A6E000E5B6E42
:10196400B7EC07F0426A010E436EEEDE4EDEFFD79F
:101A2C0010EE1FF0110E006E010E016E040EF66E1C
:0E1A3C001A0EF76E000EF86EFFEC0AF01200A4
:101974000000000000000200010004000200080052
:101984000300100004002000050040000600800051
:101994000700000100000100010002000200040031
:1019A4000300080000000000000000000000000028
:1019B4000000000000000000000001000000000022
:1019C40001000400000000000200100000000000FC
:1019D4000000000000000000000000000000010002
:1019E40001000200020004000300080000000000DF
:1019F40000000000000000000000000000000000E3
:011A040000E1
:011A050000E0
:011A060000DF
:041A070000000000DB
:011A0B0000DA
:011A0C0000D9
:011A0D0000D8
:011A0E0000D7
:011A0F0000D6
:011A100001D4
:021A11005A0079
:011A130000D2
:011A140000D1
:0C1A1500733068373839343536313233DD
:0A1A2100C0F9A4B0999282F88090F9
:020000040030CA
:0D000100021F1EFF8181FF0FC00FE00F40A6
:00000001FF
