:10000000D9EF07F00000000000EF00F00000000052
:0A0010000000000000000000F3D71C
:10001C000B820BAE18EF00F00368026801680068F1
:08002C000A360232FF0E120039
:0E003400026A016A006A086A036A000E12007E
:100042000B840BAE2CEF00F0010E036E026A016A04
:0A005200006A0A360232FF0E1200A7
:08005C000AAE029E000E120024
:080064000B6A0B86FF0E12006F
:10006C000CB078EF00F00CA21EEF01F00E6A000E3F
:10007C0002648FEF00F0F00E0214D8A45AEF00F0D7
:10008C00023A01380F0B02260138F00B016E0038D2
:10009C000F0B01260038F00B006E08380F0B0026F2
:1000AC000838F00B086E0E84D89002BE73EF00F087
:1000BC0008360036013602360E2A02BE73EF00F007
:1000CC0008360036013602360E2A02BE73EF00F0F7
:1000DC0008360036013602360E2A0E50036414EF31
:1000EC0001F0035E0BBC08AE19EF01F0D880800E56
:1000FC0008640030000E002201220222D8A019EF61
:10010C0001F0023201320032034A1EEF01F019EF06
:10011C0001F001C002F000C001F008C000F0086A54
:10012C00000E0E860264C6EF00F0F00E0214D8A486
:10013C00AEEF00F0023A01380F0B02260138F00B3B
:10014C00016E00380F0B01260038F00B006E0E8488
:10015C00D89002BE73EF00F00036013602360E2A3C
:10016C0002BE73EF00F00036013602360E2A02BED4
:10017C0073EF00F00036013602360E2A73EF00F0F2
:10018C0001C002F000C001F0006A000E0E960E884D
:10019C000264F3EF00F0F00E0214D8A4DEEF00F0CE
:1001AC00023A01380F0B02260138F00B016E0E8457
:1001BC00D89002BE73EF00F0013602360E2A02BE52
:1001CC0073EF00F0013602360E2A02BE73EF00F018
:1001DC00013602360E2A73EF00F001C002F0016AFC
:1001EC00000E0E86026423EF01F0F00E0214D8A468
:1001FC0002EF01F0023A0E84D89002BE73EF00F0C9
:10020C0002360E2A02BE73EF00F002360E2A02BE30
:10021C0073EF00F002360E2A73EF00F0010E0C6E35
:10022C000ADF26EF01F0020E0C6E12DF26EF01F052
:10023C00040E0C6EEDDE26EF01F0080E0C6EF4DEF3
:02024C0012009E
:10024E000B800BAE33EF01F0026A0AAEFF0E026EA8
:0C025E00016E006E0A360232FF0E120024
:10026A000C6A0E6A0250D8A44EEF01F001C002F0E7
:10027A0000C001F0006A0E860250D8A44EEF01F0C9
:10028A0001C002F0016A0E960E880250D8B460EFDF
:10029A0001F00E50035ED8A4D8A065EF01F0D89003
:1002AA0002BE6AEF01F0003601360236032E55EF20
:1002BA0001F065EF01F0010E0C6EB7DE6DEF01F093
:1002CA00020E0C6EB9DE6DEF01F0040E0C6EC1DE8B
:0202DA00120010
:1002DC0000C008F00150006E016A026A036A0B6AE2
:1002EC000C6A016A026A036A960E036E0A6A00AE11
:1002FC0086EF01F0081E001E082AD8B4002A0A8EC8
:10030C0000C001F008C000F0086A026AA8DF120001
:10031C00086A096A000E0762036413EF02F00250C8
:10032C0006180A6E075003267E0ED8A0A4EF01F023
:10033C00035ED8B017EF02F0A8EF01F0035ED8A06F
:10034C001BEF02F0028E068E02C00EF001C00BF005
:10035C0000C00DF000500402F4CF0CF00150050267
:10036C00F4CF00F0F3CF08F00402F3500C26F45055
:10037C000822000E00220D500502F3500C26F450FA
:10038C000822000E002202500402F3500826F450FA
:10039C00002202500502016A000E0122F3500026D1
:1003AC00F45001220D500602F3500826F45000229E
:1003BC00026A000E012202220B500602F3500026A4
:1003CC00F4500122000E02220E500602F3500126B8
:1003DC00F450022202BEFBEF01F008360036013663
:1003EC0002360306D8B41BEF02F00EEF02F0D880F1
:1003FC00800E08640030000E002201220222D8A0D8
:10040C000EEF02F0023201320032034A17EF02F013
:10041C000AAE029E000E1DEF02F0010E05DE1DEF6E
:10042C0002F0020EF5DD1DEF02F0040E04DE1200E8
:10043C00220E0C6E086A096A0A6A0B6A0C06D8B49A
:10044C001FD0D8900B320A320932083203320232F2
:10045C0001320032D8A0F2D70C06D8B409D004501F
:10046C0008260550092206500A2207500B22EAD70B
:10047C00045008260550092206500A2207500B2268
:02048C0012005C
:10048E000450000A12E10550000A0FE10650000A5E
:10049E000CE10750000A09E1FF0E006EFF0E016E1F
:1004AE007F0E026EFF0E036EA4D0086A096A075013
:1004BE00D8B4F2EF02F00350D8B4F6EF02F00250C7
:1004CE0006180A6E028E068E0E6A02C008F001C071
:1004DE000CF000C00DF004500D5E0550D8A0053C88
:1004EE000C5E0650D8A0063C085E086A0C6A0D6ABF
:1004FE00D8A089EF02F0D8900232013200320832D1
:10050E00010E0E6E0750035ED8A096EF02F07E0E1F
:10051E000E240326D8B0FAEF02F09CEF02F07E0E06
:10052E000E240326D8A0FEEF02F0180E0B6E0D3629
:10053E000C3608360036013602360E360450005E92
:10054E000550D8A0053C015E0650D8A0063C025EC0
:10055E0006340E120EA0B7EF02F00D80C2EF02F0BD
:10056E00045000260550D8B0053C01260650D8B0E0
:10057E00062802260D900B2E9EEF02F0E8EF02F0F9
:10058E00D8900036013602360E360450005E055005
:10059E00D8A0053C015E0650D8A0063C025E06348B
:1005AE000E10010B0D26D8B00C2AD8B4082AD8A4E8
:1005BE00E8EF02F008320C320D32032AD8B4FAEF0B
:1005CE0002F00AAE089E0850026E0C50016E0D50DD
:1005DE00006E00EF03F0010E3EDD00EF03F0020EA1
:1005EE0022DD00EF03F0040E12DD00EF03F0080E23
:0405FE0021DD1200E9
:100602000B6A0C6A0A6A086A0350D8B489EF03F0CD
:10061200028E9E0E035E03BE14EF03F0D8B414EFF5
:1006220003F079EF03F0036C080E035CD8A046EFE9
:1006320003F0036E083600C008F001C000F002C0EB
:1006420001F0026A080E035CD8A046EF03F0036EC5
:10065200083600C008F001C000F0016A080E035C11
:10066200D8A046EF03F0036E083600C008F0006A17
:10067200080E035CD8A046EF03F0036E0836086A42
:100682000350D8A4D89052EF03F00350D8B452EFDD
:1006920003F0D8900232013200320832032E4AEFC0
:1006A20003F00BBC08A063EF03F0D8A063EF03F0E4
:1006B200082AD8B4002AD8B4012AD8B4022A02BE21
:1006C2008DEF03F00AAE89EF03F0021E011E001E39
:1006D200081E082AD8B4002AD8B4012AD8B4022A9B
:1006E20089EF03F0026A016A006A086A89EF03F07F
:1006F2000B800BAE92EF03F0026A0AAE92EF03F0A8
:10070200026E016E006E086E0A36023292EF03F03C
:10071200000E0C6A93EF03F0010E0C6E97DD93EF5F
:1007220003F0FF0E0250036E0150026E0050016E84
:060732000850006E1200E9
:100738000050086E0150006E0250016E0350026EA8
:10074800036A0B6A0C6A9E0E036E0A6A020E0C6E2E
:0407580089DC120026
:10075C0000C008F00B6A0C6A9E0E036E0A6A026AED
:0C076C00016A006A020E0C6E7BDC1200B9
:10077800E2D0120E006E000E016E026E036E4AC0C9
:1007880004F0000E056E066E076E54DE3E0E002461
:10079800056E100E0120066E000E0220076E4BC07B
:1007A80000F0000E016E026E036E003600900136F6
:1007B8000236033605500026065001220750022251
:1007C800010E0024F66E000E0120F76E000E0220C6
:1007D800F86E0900F5CF00F0BDDF000E046E000EC4
:1007E800056E000E066E7E0E076E94DD00C04DF09D
:1007F80001C04EF002C04FF003C050F046C000F0F8
:1008080047C001F048C002F049C003F091DF4DC075
:1008180004F04EC005F04FC006F050C007F033DEBC
:10082800ECDE000E176E000E186E010E196E000E2B
:100838001A6E0050175E0150185A0250195A035088
:100848001A5A89D0120E006E000E016E026E036EE7
:100858004AC004F0000E056E066E076EEBDD3E0E14
:100868000024056E100E0120066E000E0220076E91
:100878004BC000F0000E016E026E036E0036009051
:10088800013602360336055000260650012207506D
:100898000222010E0024F66E000E0120F76E000EF3
:1008A8000220F86E0900F5CF00F054DF000E046E48
:1008B800000E056E000E066E7E0E076E2BDD00C064
:1008C8004DF001C04EF002C04FF003C050F04C5044
:1008D800010F006E016A000E0122FCDC4DC004F01D
:1008E8004EC005F04FC006F050C007F013DD00C041
:1008F8004DF001C04EF002C04FF003C050F046C0AA
:1009080000F047C001F048C002F049C003F010DF12
:100918004DC004F04EC005F04FC006F050C007F0BF
:10092800B2DD6BDE00C017F001C018F002C019F08C
:1009380003C01AF010D04A50000AD8B41AD74A5047
:10094800010AD8B416D74A50030AD8B412D74A5065
:08095800020AD8B477D712009F
:1009600032D0FF0E1714D66E18C000F019C001F077
:100970001AC002F0036AFF0E0014D76EF2942FD053
:10098000FF0E1714CE6E18C000F019C001F01AC087
:1009900002F0036AFF0E0014CF6EF29020D0FF0E1B
:1009A0001714B26E18C000F019C001F01AC002F09E
:1009B000036AFF0E0014B36EF29211D0FF0E1714EB
:1009C000CB6EF2920CD04650000ACBE04650010AA2
:1009D000D7E04650030AE3E04650020AEFE0120077
:1009E00016D1120E006E000E016E026E036E46C02E
:1009F00004F0000E056E066E076E20DD3E0E00242C
:100A0000056E100E0120066E000E0220076E47C014
:100A100000F0000E016E026E036E0036009001368B
:100A20000236033605500024F66E06500120F76E9C
:100A300007500220F86E0900F5CF03F0010E4614AE
:100A4000026E02C000F0003600900036009000C038
:100A500001F003C000F0015004E000360090FF0FE9
:100A6000FBD70050D512E2D0120E006E000E016EC0
:100A7000026E036E46C004F0000E056E066E076E31
:100A8000DDDC3E0E0024056E100E0120066E000E09
:100A90000220076E47C000F0000E016E026E036E6A
:100AA0000036009001360236033605500024F66EFB
:100AB00006500120F76E07500220F86E0900F5CFAE
:100AC00003F0010E4614026E02C000F000360090E2
:100AD0000036009000C001F003C000F0015004E0B7
:100AE00000360090FF0FFBD70050CD129FD0120EA2
:100AF000006E000E016E026E036E46C004F0000E22
:100B0000056E066E076E9ADC3E0E0024056E100E12
:100B10000120066E000E0220076E47C000F0000E96
:100B2000016E026E036E0036009001360236033607
:100B300005500024F66E06500120F76E0750022083
:100B4000F86E0900F5CF03F0010E4614026E02C0E4
:100B500000F0003600900036009000C001F003C0A5
:100B600000F0015004E000360090FF0FFBD700506A
:100B7000CA1248C000F000360090003600900036DF
:100B800000900050CA1252D0120E006E000E016E7C
:100B9000026E036E46C004F0000E056E066E076E10
:100BA0004DDC3E0E0024056E100E0120066E000E78
:100BB0000220076E47C000F0000E016E026E036E49
:100BC0000036009001360236033605500024F66EDA
:100BD00006500120F76E07500220F86E0900F5CF8D
:100BE00003F0010E4614026E02C000F000360090C1
:100BF0000036009000C001F003C000F0015004E096
:100C000000360090FF0FFBD70050B1120FD04650B6
:100C1000000AD8B4E6D64650010AD8B425D74650C3
:0E0C2000020AD8B464D74650030AAEE01200B0
:100C2E000B6A0C6A0A6A0350D8B44CEF06F00A9E9F
:100C3E00028E860E035E03BE2AEF06F0D8B42AEFAC
:100C4E0006F04FEF06F0036C080E035CD8A038EFE9
:100C5E0006F0036E0236026A0350D8A4D89041EF14
:100C6E0006F00350D8B441EF06F0D8900232032EAE
:100C7E003CEF06F00BBC02A04CEF06F0D8A04CEFF8
:100C8E0006F0022AD8B456EF06F0016A5CEF06F0C1
:100C9E000B800BAE60EF06F0016A60EF06F0010EFE
:100CAE000C6E27EC01F062EF06F0000E0C6E62EF98
:0C0CBE0006F0FF0E0C6E0250006E1200DB
:100CCA0018D03CB002D0F19001D0F1801ED03CB0D7
:100CDA0002D0F19401D0F18418D03CB002D0F09C3B
:100CEA0001D0F08C12D03CB002D0F09E01D0F08E30
:100CFA000CD03B50000AE5E03B50020AE8E03B50CA
:0C0D0A00060AEBE03B50070AEEE0120086
:080D1600F28EF28CD08E120067
:100D1E003EC000F03FC001F040C002F041C003F001
:100D2E0042C004F043C005F044C006F045C007F0D1
:100D3E001EEC02F000C03EF001C03FF002C040F0D9
:100D4E0003C041F000C046F001C047F002C048F0B9
:100D5E0003C049F03BC04AF03CC04BF03DC04CF0E4
:100D6E0004DD3BC046F03CC047F03DC048F031DEEC
:080D7E003BC046F0EEDD12005F
:100D86000900F5CFE6FF0006FBE10106F9E11200D6
:100D96000F0EC112166A156ABBDF93829384F09018
:100DA600F092060E3B6E3C6A8DDF070E3B6E3C6A88
:0C0DB60089DFF19AF198F086F0881200B5
:100DC2000F0EC1122FC021F030C022F02DC01FF033
:100DD2002EC020F033C01DF034C01EF031C01BF015
:100DE20032C01CF02DC0E9FF2EC0EAFF2DC0E1FF8A
:100DF2002EC0E2FF3550EE1621C0E9FF22C0EAFF05
:0E0E020021C0E1FF22C0E2FF000EEE1612003A
:100E10000F0EC1122DC027F02EC028F02FC029F0D0
:100E200030C02AF031C02BF032C02CF033C023F098
:100E300034C024F035C025F036C026F02DC0E9FFBF
:100E40002EC0EAFF2DC0E1FF2EC0E2FF3550EE12AA
:100E500023C0E9FF24C0EAFF23C0E1FF24C0E2FF72
:100E60002650EE122BC0E9FF2CC0EAFF2BC0E1FF99
:100E70002CC0E2FF2550EE1227C0E9FF28C0EAFF90
:100E800027C0E1FF28C0E2FF2550EE12261C006EAD
:100E900029C0E9FF2AC0EAFF29C0E1FF2AC0E2FF1A
:060EA0000050EE161200E6
:100EA600F00EBD14016E0F0E2D14006E00500110D1
:100EB600BD6E2EC000F04FDC000E046E000E056EF7
:100EC600480E066E850E076E47EC02F000C037F03E
:100ED60001C038F002C039F003C03AF0006A016A76
:100EE600026A036A26DC00C004F001C005F002C0F5
:100EF60006F003C007F0000E006E240E016E740E9D
:100F0600026E950E036E47EC02F037C004F038C04F
:100F160005F039C006F03AC007F08EEC01F084DE29
:100F260000C02EF000C001F00132019E0132019E88
:100F3600FF0E0114006E00C0BEFF0050BD12020E6F
:100F46003B6E020E3C6E3D6A2FC000F030C001F0D1
:100F560031C002F032C003F09CEC03F000C004F094
:100F660001C005F002C006F003C007F0000E006ED7
:100F7600000E016E000E026E7F0E036E47EC02F04D
:100F860001EC03F000C03EF001C03FF002C040F0AB
:100F960003C041F033C042F034C043F035C044F0E2
:0C0FA60036C045F0B9DE9494CA941200E5
:100FB20046EC08F07F0E93167F0E8116949A829A61
:100FC200E9DE0C0E2D6E190E2E6E0A0E2F6E000E1D
:100FD200306E316E326EE80E336E030E346E000EDA
:100FE200356E000E366E5EDF950E2D6E0F0E2E6E76
:100FF200930E2F6E0F0E306E830E316E0F0E326E09
:10100200810E336E0F0E346E0F0E356E070E366E76
:10101200FEDE920E2D6E0F0E2E6E950E2F6E0F0EA1
:10102200306E800E316E0F0E326E830E336E0F0EE7
:0C103200346EC30E356EC4DEFFD7FFD74E
:10108C0010EE15F0060E006E010E016E860EF66E59
:0E109C00100EF76E000EF86EC3EC06F0120098
:10103E00000000020104020803100420054006808F
:10104E000700000101020204030800000000000076
:10105E00000000000001000001040000021000006A
:10106E00000000000000000101020204030800005D
:08107E0000000000000000006A
:011086000069
:011087000068
:041088000000000064
:020000040030CA
:0D000100021F1EFF8181FF0FC00FE00F40A6
:00000001FF
