:1000000051EF08F00000000000EF00F000000000D9
:0A0010000000000000000000F3D71C
:08001C000AAE029E000E120064
:100024000B820BAE1CEF00F00368026801680068E5
:080034000A360232FF0E120031
:0E003C00026A016A006A086A036A000E120076
:10004A000B840BAE30EF00F0010E036E026A016AF8
:0A005A00006A0A360232FF0E12009F
:100064000CB074EF00F00CA21AEF01F00E6A000E4F
:1000740002648BEF00F0F00E0214D8A456EF00F0E7
:10008400023A01380F0B02260138F00B016E0038DA
:100094000F0B01260038F00B006E08380F0B0026FA
:1000A4000838F00B086E0E84D89002BE6FEF00F093
:1000B40008360036013602360E2A02BE6FEF00F013
:1000C40008360036013602360E2A02BE6FEF00F003
:1000D40008360036013602360E2A0E50036410EF3D
:1000E40001F0035E0BBC08AE15EF01F0D880800E62
:1000F40008640030000E002201220222D8A015EF6D
:1001040001F0023201320032034A1AEF01F015EF16
:1001140001F001C002F000C001F008C000F0086A5C
:10012400000E0E860264C2EF00F0F00E0214D8A492
:10013400AAEF00F0023A01380F0B02260138F00B47
:10014400016E00380F0B01260038F00B006E0E8490
:10015400D89002BE6FEF00F00036013602360E2A48
:1001640002BE6FEF00F00036013602360E2A02BEE0
:100174006FEF00F00036013602360E2A6FEF00F002
:1001840001C002F000C001F0006A000E0E960E8855
:100194000264EFEF00F0F00E0214D8A4DAEF00F0DE
:1001A400023A01380F0B02260138F00B016E0E845F
:1001B400D89002BE6FEF00F0013602360E2A02BE5E
:1001C4006FEF00F0013602360E2A02BE6FEF00F028
:1001D400013602360E2A6FEF00F001C002F0016A08
:1001E400000E0E8602641FEF01F0F00E0214D8A474
:1001F400FEEF00F0023A0E84D89002BE6FEF00F0DA
:1002040002360E2A02BE6FEF00F002360E2A02BE3C
:100214006FEF00F002360E2A6FEF00F0010E0C6E45
:1002240012DF22EF01F0020E0C6EF6DE22EF01F077
:10023400040E0C6EF5DE22EF01F0080E0C6EFCDEEF
:020244001200A6
:080246000B6A0B86FF0E12008B
:10024E00025006180E6E086A096A0B6A035007649C
:10025E001AEF02F006500A6E068E028E03500B6ED7
:10026E000750036E000E0B646AEF01F00B50075E31
:10027E00D8B40BEF02F0070E0764D9EF01F0075E5A
:10028E0000C008F001C000F002C001F0026A074E83
:10029E000BEF02F00764AEEF01F0075E00C008F04E
:1002AE0001C000F0016A074E0BEF02F007648CEFFD
:1002BE0001F0075E00C008F0006A074E0BEF02F077
:1002CE00076473EF01F00AC002F005C001F004C02C
:1002DE0000F0086A34EF03F0030E07647EEF01F0BE
:1002EE00075E08380F0B086E074E0BEF02F0D89022
:1002FE000832074E0BEF02F0D8900832074E0BEF84
:10030E0002F0D89008320BEF02F0030E07649DEF57
:10031E0001F0075E08380F0B086E0038F00B082648
:10032E0000380F0B006E074E0BEF02F0D890003224
:10033E000832074E0BEF02F0D89000320832074E0B
:10034E000BEF02F0D890003208320BEF02F0030EE2
:10035E000764C5EF01F0075E08380F0B086E003812
:10036E00F00B082600380F0B006E0138F00B00263C
:10037E0001380F0B016E074E0BEF02F0D8900132D1
:10038E0000320832074E0BEF02F0D89001320032E5
:10039E000832074E0BEF02F0D890013200320832CD
:1003AE000BEF02F0030E0764F6EF01F0075E08385C
:1003BE000F0B086E0038F00B082600380F0B006E7E
:1003CE000138F00B002601380F0B016E0238F00BCE
:1003DE00012602380F0B026E074E0BEF02F0D8907B
:1003EE000232013200320832074E0BEF02F0D89083
:1003FE000232013200320832074E0BEF02F0D89073
:10040E000232013200320832096A000E0EAEFFEFE0
:10041E0002F0081E001E011E021E082A00220122E2
:10042E000222FFEF02F00750D8A420EF02F034EFC3
:10043E0003F0096A02C00AF0028E068E0750035CB2
:10044E00076ED8B4F2EF02F0070E0764C0EF02F0A9
:10045E00075E0450096E0550046E0650056E066A5E
:10046E00074EF2EF02F0070E076495EF02F0075EFB
:10047E000450096E0550046E056A074EF2EF02F045
:10048E00070E076473EF02F0075E0450096E046AEC
:10049E00074EF2EF02F0070E07645AEF02F00AC0A1
:1004AE0002F034EF03F0030E076465EF02F0075E0F
:1004BE0009380F0B096E074EF2EF02F0D890093291
:1004CE00074EF2EF02F0D8900932074EF2EF02F02B
:1004DE00D8900932F2EF02F0030E076484EF02F0B7
:1004EE00075E09380F0B096E0438F00B0926043825
:1004FE000F0B046E074EF2EF02F0D8900432093261
:10050E00074EF2EF02F0D89004320932074EF2EFA6
:10051E0002F0D89004320932F2EF02F0030E0764B3
:10052E00ACEF02F0075E09380F0B096E0438F00BC2
:10053E00092604380F0B046E0538F00B0426053817
:10054E000F0B056E074EF2EF02F0D8900532043213
:10055E000932074EF2EF02F0D8900532043209321A
:10056E00074EF2EF02F0D890053204320932F2EF64
:10057E0002F0030E0764DDEF02F0075E09380F0B81
:10058E00096E0438F00B092604380F0B046E05387B
:10059E00F00B042605380F0B056E0638F00B0526FA
:1005AE0006380F0B066E074EF2EF02F0D8900632A9
:1005BE00053204320932074EF2EF02F0D8900632BD
:1005CE00053204320932074EF2EF02F0D8900632AD
:1005DE00053204320932086A000E0EAEFFEF02F049
:1005EE00091E041E051E061E092A042205220622C5
:1005FE0009500826045000220550012206500222FE
:10060E000EBE16EF03F0D8A025EF03F00232013232
:10061E0000320832033E25EF03F02FEF03F0D8B07F
:10062E002AEF03F0000E081E001E011E021E082AED
:10063E000022012202220A7E2AEF03F0010E0C6E26
:10064E000ADD36EF03F0020E0C6E05DD36EF03F019
:10065E00040E0C6EE0DC36EF03F0000E0C6E120092
:10066E000B800BAE43EF03F0026A0AAEFF0E026E72
:0C067E00016E006E0A360232FF0E120000
:10068A00220E0C6E086A096A0A6A0B6A0C06D8B44A
:10069A001FD0D8900B320A320932083203320232A2
:1006AA0001320032D8A0F2D70C06D8B409D00450CF
:1006BA0008260550092206500A2207500B22EAD7BB
:1006CA00045008260550092206500A2207500B2218
:0206DA0012000C
:1006DC000050086E0150006E0250016E0350026E05
:1006EC00036A0B6A0C6A9E0E036E0A6A020E0C6E8B
:0406FC00B3DC120059
:06070000067EA5DD1200DB
:1007060000C008F00B6A0C6A9E0E036E0A6A026A43
:0C071600016A006A020E0C6EA2DC1200E8
:100722000B6A0C6A0A6A086A0350D8B419EF04F01B
:10073200028E9E0E035E03BEA4EF03F0D8B4A4EFB4
:1007420003F009EF04F0036C080E035CD8A0D6EFA7
:1007520003F0036E083600C008F001C000F002C0CA
:1007620001F0026A080E035CD8A0D6EF03F0036E14
:10077200083600C008F001C000F0016A080E035CF0
:10078200D8A0D6EF03F0036E083600C008F0006A66
:10079200080E035CD8A0D6EF03F0036E0836086A91
:1007A2000350D8A4D890E2EF03F00350D8B4E2EF9C
:1007B20003F0D8900232013200320832032EDAEF0F
:1007C20003F00BBC08A0F3EF03F0D8A0F3EF03F0A3
:1007D200082AD8B4002AD8B4012AD8B4022A02BE00
:1007E2001DEF04F00AAE19EF04F0021E011E001EF6
:1007F200081E082AD8B4002AD8B4012AD8B4022A7A
:1008020019EF04F0026A016A006A086A19EF04F03B
:100812000B800BAE22EF04F0026A0AAE22EF04F064
:10082200026E016E006E086E0A36023222EF04F08A
:10083200000E0C6A23EF04F0010E0C6E17DF23EF9B
:1008420004F0FF0E0250036E0150026E0050016E62
:060852000850006E1200C8
:10085800086A096A000E07620364B1EF04F00250E7
:1008680006180A6E075003267E0ED8A042EF04F041
:10087800035ED8B0B6EF04F046EF04F0035ED8A0EC
:10088800BBEF04F0028E068E02C00EF001C00BF022
:1008980000C00DF000500402F4CF0CF00150050226
:1008A800F4CF00F0F3CF08F00402F3500C26F45014
:1008B8000822000E00220D500502F3500C26F450B9
:1008C8000822000E002202500402F3500826F450B9
:1008D800002202500502016A000E0122F350002690
:1008E800F45001220D500602F3500826F45000225D
:1008F800026A000E012202220B500602F350002663
:10090800F4500122000E02220E500602F350012676
:10091800F450022202BE99EF04F008360036013680
:1009280002360306D8B4BBEF04F0ACEF04F0D8806D
:10093800800E08640030000E002201220222D8A096
:10094800ACEF04F0023201320032034AB6EF04F091
:100958000AAE029E000EBEEF04F0010E1EEC00F07F
:10096800BEEF04F0020E12EC00F0BEEF04F0040E2D
:0609780025EC00F0120066
:10097E000450000A12E10550000A0FE10650000A69
:10098E000CE10750000A09E1FF0E006EFF0E016E2A
:10099E007F0E026EFF0E036EA8D0086A096A07501A
:1009AE00D8B46AEF05F00350D8B46FEF05F00250DB
:1009BE0006180A6E028E068E0E6A02C008F001C07C
:1009CE000CF000C00DF004500D5E0550D8A0053C93
:1009DE000C5E0650D8A0063C085E086A0C6A0D6ACA
:1009EE00D8A001EF05F0D890023201320032083261
:1009FE00010E0E6E0750035ED8A00EEF05F07E0EB0
:100A0E000E240326D8B074EF05F014EF05F07E0E19
:100A1E000E240326D8A079EF05F0180E0B6E0D36B6
:100A2E000C3608360036013602360E360450005E9D
:100A3E000550D8A0053C015E0650D8A0063C025ECB
:100A4E0006340E120EA02FEF05F00D803AEF05F0D2
:100A5E00045000260550D8B0053C01260650D8B0EB
:100A6E00062802260D900B2E16EF05F060EF05F00E
:100A7E00D8900036013602360E360450005E055010
:100A8E00D8A0053C015E0650D8A0063C025E063496
:100A9E000E10010B0D26D8B00C2AD8B4082AD8A4F3
:100AAE0060EF05F008320C320D32032AD8B474EF21
:100ABE0005F00AAE089E0850026E0C50016E0D50E5
:100ACE00006E7CEF05F0010E23EC01F07CEF05F0DB
:100ADE00020E1EEC00F07CEF05F0040E12EC00F09E
:0C0AEE007CEF05F0080E25EC00F0120073
:100AFA000CD1120E006E000E016E026E036E3AC029
:100B0A0004F0000E056E066E076EBADD500E002464
:100B1A00056E110E0120066E000E0220076E3BC004
:100B2A0000F0000E016E026E036E00360090013670
:100B3A000236033605500024F66E06500120F76E81
:100B4A0007500220F86E0900F5CF03F0010E3A149F
:100B5A00026E02C000F0003600900036009000C01D
:100B6A0001F003C000F0015004E000360090FF0FCE
:100B7A00FBD70050D512D8D0120E006E000E016EAF
:100B8A00026E036E3AC004F0000E056E066E076E22
:100B9A0077DD500E0024056E110E0120066E000E40
:100BAA000220076E3BC000F0000E016E026E036E5B
:100BBA000036009001360236033605500024F66EE0
:100BCA0006500120F76E07500220F86E0900F5CF93
:100BDA0003F0010E3A14026E02C000F000360090D3
:100BEA000036009000C001F003C000F0015004E09C
:100BFA0000360090FF0FFBD70050CD1295D0120E91
:100C0A00006E000E016E026E036E3AC004F0000E12
:100C1A00056E066E076E34DD500E0024056E110E49
:100C2A000120066E000E0220076E3BC000F0000E87
:100C3A00016E026E036E00360090013602360336EC
:100C4A0005500024F66E06500120F76E0750022068
:100C5A00F86E0900F5CF03F0010E3A14026E02C0D5
:100C6A0000F0003600900036009000C001F003C08A
:100C7A0000F0015004E000360090FF0FFBD700504F
:100C8A00CA1252D0120E006E000E016E026E036E70
:100C9A003AC004F0000E056E066E076EF1DC500EC7
:100CAA000024056E110E0120066E000E0220076E4A
:100CBA003BC000F0000E016E026E036E003600901B
:100CCA0001360236033605500024F66E065001201E
:100CDA00F76E07500220F86E0900F5CF03F0010EF7
:100CEA003A14026E02C000F00036009000360090FE
:100CFA0000C001F003C000F0015004E0003600908B
:100D0A00FF0FFBD70050B1120FD03A50000AD8B4E7
:100D1A00F0D63A50010AD8B42FD73A50020AD8B4BA
:0A0D2A006ED73A50030AAEE0120043
:100D3400120E006E000E016E026E036E3EC004F0D1
:100D4400000E056E066E076E9EDC500E0024056EC6
:100D5400110E0120066E000E0220076E3FC000F047
:100D6400000E016E026E036E0036009001360236EC
:100D74000336055000260650012207500222010EB8
:100D84000024F66E000E0120F76E000E0220F86EAD
:100D94000900F5CF00F0B5DC000E046E000E056E00
:100DA400000E066E7E0E076E55DD00C040F001C0D9
:100DB40041F002C042F003C043F03AC000F03BC02F
:100DC40001F03CC002F03DC003F086DC40C004F0FA
:100DD40041C005F042C006F043C007F0CEDD00C0BC
:100DE40004F001C005F002C006F003C007F0000ED5
:100DF400006E000E016E000E026E8F0E036E7EDC1E
:100E04008EDC00C017F001C018F002C019F003C056
:040E14001AF01200BE
:100E180032D0FF0E1714D66E18C000F019C001F0BA
:100E28001AC002F0036AFF0E0014D76EF2942FD096
:100E3800FF0E1714CE6E18C000F019C001F01AC0CA
:100E480002F0036AFF0E0014CF6EF29020D0FF0E5E
:100E58001714B26E18C000F019C001F01AC002F0E1
:100E6800036AFF0E0014B36EF29211D0FF0E17142E
:100E7800CC6EF2920CD03A50000ACBE03A50010AFC
:100E8800D7E03A50030AE3E03A50020AEFE01200D2
:100E98000F0EC11230C02CF031C02DF032C02EF030
:100EA80033C02FF034C027F035C028F036C023F007
:100EB80037C024F038C025F039C026F030C0E9FF2B
:100EC80031C0EAFF30C0E1FF31C0E2FF3850EE1216
:100ED80023C0E9FF24C0EAFF23C0E1FF24C0E2FFEA
:100EE8002650EE1227C0E9FF28C0EAFF27C0E1FF1D
:100EF80028C0E2FF2550EE122CC0E9FF2DC0EAFF02
:100F08002CC0E1FF2DC0E2FF2550EE12261C006E1A
:100F18002EC0E9FF2FC0EAFF2EC0E1FF2FC0E2FF7D
:060F28000050EE1612005D
:060F2E00166A156A1200AC
:100F34000900F5CFE6FF0006FBE10106F9E1120026
:100F44000F0EC11232C01FF033C020F030C01DF0AC
:100F540031C01EF036C01BF037C01CF034C021F085
:100F640035C022F030C0E9FF31C0EAFF30C0E1FFF4
:100F740031C0E2FF3850EE161FC0E9FF20C0EAFF7F
:0E0F84001FC0E1FF20C0E2FF000EEE161200BB
:100F920021C0E1FF22C0E2FF30C0E6FF980E3124FB
:100FA200F66E110EF76E000EF722000EF86E000EAE
:100FB200F8220900F5CF00F01BC0E1FF1CC0E2FFE0
:060FC200001CE66E1200A7
:100FC80030C0E9FF31C0EAFFEECF01F00150000A5E
:100FD80026E1010E3024E96E000E3120EA6EEE5053
:100FE800000819E2010E3024016E000E3120026E55
:100FF80001C0E9FF02C0EAFFEE04006E01C0E1FF94
:1010080002C0E2FF00C0E6FF30C0E1FF31C0E2FFEE
:101018003B0EE66E03D0010E006E0ED00CD030C031
:10102800E9FF31C0EAFFEECF00F030C0E1FF31C088
:0A103800E2FF0004E66E006A1200F9
:1010420032C000F033C001F034C002F035C003F00A
:1010520036C004F037C005F038C006F039C007F0DA
:1010620045EC03F000C032F001C033F002C034F0AE
:1010720003C035F000C03AF001C03BF002C03CF0C2
:1010820003C03DF030C03EF031C03FF052DE30C010
:101092003AF031C03BF030DD30C03AF0BCDE120035
:1010A200D4EC08F07F0E93167F0E8116949A829AE2
:1010B2003DDF950E306E0F0E316E930E326E0F0EB7
:1010C200336E830E346E0F0E356E810E366E0F0E3A
:1010D200376E0F0E386E070E396EDDDE920E306EF1
:1010E2000F0E316E950E326E0F0E336E800E346E11
:1010F2000F0E356E830E366E0F0E376EC30E386EC0
:1011020020DF090E296E306A070E316E010E326E33
:10111200000E336E346E356E400E366E420E376EF2
:101122000F0E386E000E396E8BDFD58E200E306EAC
:1011320029C031F02DDFF2A408D0290E306E000E46
:0E114200316E41DF3A6A67DED58EF0D7FFD7F7
:1011A80010EE15F0060E006E010E016EA20EF66E20
:0E11B800110EF76E000EF86E9AEC07F01200A2
:10115000000000020104020803100420054006807C
:101160000700000101020204030800000000000063
:101170000000000000010000010400000210000057
:10118000000000000000000101020204030800004A
:08119000000000000000000057
:0A119800C0F9A4B0999282F880908B
:0111A200004C
:0111A300004B
:0411A4000000000047
:020000040030CA
:0D000100021F1EFF8181FF0FC00FE00F40A6
:00000001FF
