:1000000057EF00F00000000000EF00F000000000DB
:0A0010000000000000000000F3D71C
:10001C001BC0E1FF1CC0E2FF20C0E6FF19C0E1FFDE
:0A002C001AC0E2FF21C0E6FF120037
:100036000900F5CFE6FF0006FBE10106F9E1120033
:10004600086A080E0C6E003408360450085ED8B0F4
:0E00560002D00826D89000360C2EF5D71200E6
:1000640020C015F021C016F022C017F023C018F0EC
:1000740024C019F025C01AF026C01BF027C01CF0BC
:1000840020C0E9FF21C0EAFF20C0E1FF21C0E2FF58
:10009400000EEE1617C0E9FF18C0EAFF17C0E1FF13
:0A00A40018C0E2FF2850EE1612000B
:1000AE001F6A950E206E0F0E216E920E226E0F0E8F
:1000BE00236E830E246E0F0E256E800E266E0F0E8F
:1000CE00276EC30E286EC7DF0A0E1D6E000E931626
:1000DE00000E8116000E1D5C4AE31F6AC80E1F5CDF
:1000EE0040E2200E206E0A0E046E1DC000F0A4DF4A
:1000FE0008C000F07E0E0024F66E010EF76E000EA4
:10010E00F722000EF86E000EF8220900F5CF21F04E
:10011E007EDF070E0C6E7D0E0D6E0D2EFED70C2E95
:10012E00FCD7100E206E0A0E046E1DC000F084DF88
:10013E007E0E0024F66E010EF76E000EF722000EF4
:10014E00F86E000EF8220900F5CF21F060DF070EE1
:10015E000C6E7D0E0D6E0D2EFED70C2EFCD71F2AAB
:10016E00BDD781781D04006E00C01DF0B3D7FFD738
:0A017E003F065B4F666D7D077F6F43
:020000040030CA
:0D000100021F1EFF8381FF0FC00FE00F40A4
:00000001FF
