:100000009BEF07F00000000000EF00F00000000090
:0A0010000000000000000000F3D71C
:10001C000B820BAE18EF00F00368026801680068F1
:08002C000A360232FF0E120039
:0E003400026A016A006A086A036A000E12007E
:100042000B840BAE2CEF00F0010E036E026A016A04
:0A005200006A0A360232FF0E1200A7
:08005C000AAE029E000E120024
:100064000B800BAE3EEF00F0026A0AAEFF0E026E8A
:0C007400016E006E0A360232FF0E120010
:080080000B6A0B86FF0E120053
:100088000C6A0E6A0250D8A45DEF00F001C002F0BD
:1000980000C001F0006A0E860250D8A45DEF00F09F
:1000A80001C002F0016A0E960E880250D8B46FEFB4
:1000B80000F00E50035ED8A4D8A074EF00F0D890DA
:1000C80002BE79EF00F0003601360236032E64EFE7
:1000D80000F074EF00F0010E0C6EA8DF7CEF00F06A
:1000E800020E0C6EAADF7CEF00F0040E0C6EB2DF7D
:0200F8001200F4
:1000FA000CB0BFEF00F00CA265EF01F00E6A000E23
:10010A000264D6EF00F0F00E0214D8A4A1EF00F0BA
:10011A00023A01380F0B02260138F00B016E003843
:10012A000F0B01260038F00B006E08380F0B002663
:10013A000838F00B086E0E84D89002BEBAEF00F0B1
:10014A0008360036013602360E2A02BEBAEF00F031
:10015A0008360036013602360E2A02BEBAEF00F021
:10016A0008360036013602360E2A0E5003645BEF5B
:10017A0001F0035E0BBC08AE60EF01F0D880800E80
:10018A0008640030000E002201220222D8A060EF8B
:10019A0001F0023201320032034A65EF01F060EFEA
:1001AA0001F001C002F000C001F008C000F0086AC6
:1001BA00000E0E8602640DEF01F0F00E0214D8A4B0
:1001CA00F5EF00F0023A01380F0B02260138F00B66
:1001DA00016E00380F0B01260038F00B006E0E84FA
:1001EA00D89002BEBAEF00F00036013602360E2A67
:1001FA0002BEBAEF00F00036013602360E2A02BEFF
:10020A00BAEF00F00036013602360E2ABAEF00F0D5
:10021A0001C002F000C001F0006A000E0E960E88BE
:10022A0002643AEF01F0F00E0214D8A425EF01F0AF
:10023A00023A01380F0B02260138F00B016E0E84C8
:10024A00D89002BEBAEF00F0013602360E2A02BE7C
:10025A00BAEF00F0013602360E2A02BEBAEF00F0FB
:10026A00013602360E2ABAEF00F001C002F0016A26
:10027A00000E0E8602646AEF01F0F00E0214D8A492
:10028A0049EF01F0023A0E84D89002BEBAEF00F0AC
:10029A0002360E2A02BEBAEF00F002360E2A02BE5B
:1002AA00BAEF00F002360E2ABAEF00F0010E0C6E19
:1002BA00C3DE6DEF01F0020E0C6ECBDE6DEF01F0C6
:1002CA00040E0C6EA6DE6DEF01F0080E0C6EADDEAC
:0202DA00120010
:1002DC000B6A0C6A0A6A086A0350D8B4F6EF01F08C
:1002EC00028E9E0E035E03BE81EF01F0D8B481EF47
:1002FC0001F0E6EF01F0036C080E035CD8A0B3EF3D
:10030C0001F0036E083600C008F001C000F002C016
:10031C0001F0026A080E035CD8A0B3EF01F0036E83
:10032C00083600C008F001C000F0016A080E035C3A
:10033C00D8A0B3EF01F0036E083600C008F0006AD5
:10034C00080E035CD8A0B3EF01F0036E0836086A00
:10035C000350D8A4D890BFEF01F00350D8B4BFEF2E
:10036C0001F0D8900232013200320832032EB7EF7E
:10037C0001F00BBC08A0D0EF01F0D8A0D0EF01F039
:10038C00082AD8B4002AD8B4012AD8B4022A02BE4A
:10039C00FAEF01F00AAEF6EF01F0021E011E001E8C
:1003AC00081E082AD8B4002AD8B4012AD8B4022AC4
:1003BC00F6EF01F0026A016A006A086AF6EF01F0D2
:1003CC000B800BAEFFEF01F0026A0AAEFFEF01F0FB
:1003DC00026E016E006E086E0A360232FFEF01F0FB
:1003EC00000E0C6A00EF02F0010E0C6E35DE00EF11
:1003FC0002F0FF0E0250036E0150026E0050016EAF
:06040C000850006E120012
:10041200086A096A000E076203648EEF02F0025056
:1004220006180A6E075003267E0ED8A01FEF02F0B0
:10043200035ED8B092EF02F023EF02F0035ED8A081
:1004420096EF02F0028E068E02C00EF001C00BF093
:1004520000C00DF000500402F4CF0CF00150050270
:10046200F4CF00F0F3CF08F00402F3500C26F4505E
:100472000822000E00220D500502F3500C26F45003
:100482000822000E002202500402F3500826F45003
:10049200002202500502016A000E0122F3500026DA
:1004A200F45001220D500602F3500826F4500022A7
:1004B200026A000E012202220B500602F3500026AD
:1004C200F4500122000E02220E500602F3500126C1
:1004D200F450022202BE76EF02F0083600360136F0
:1004E20002360306D8B496EF02F089EF02F0D88004
:1004F200800E08640030000E002201220222D8A0E1
:1005020089EF02F0023201320032034A92EF02F026
:100512000AAE029E000E98EF02F0010E8ADD98EFFD
:1005220002F0020E7ADD98EF02F0040E89DD12006D
:100532000050086E0150006E0250016E0350026EB0
:10054200036A0B6A0C6A9E0E036E0A6A020E0C6E36
:04055200D3DD1200E3
:1005560000C008F00150006E016A026A036A0B6A65
:100566000C6A016A026A036A960E036E0A6A00AE94
:10057600C3EF02F0081E001E082AD8B4002A0A8E0D
:1005860000C001F008C000F0086A026A7ADD1200B5
:100596000450000A12E10550000A0FE10650000A55
:1005A6000CE10750000A09E1FF0E006EFF0E016E16
:1005B6007F0E026EFF0E036EA4D0086A096A07500A
:1005C600D8B476EF03F00350D8B47AEF03F00250B4
:1005D60006180A6E028E068E0E6A02C008F001C068
:1005E6000CF000C00DF004500D5E0550D8A0053C7F
:1005F6000C5E0650D8A0063C085E086A0C6A0D6AB6
:10060600D8A00DEF03F0D890023201320032083242
:10061600010E0E6E0750035ED8A01AEF03F07E0E91
:100626000E240326D8B07EEF03F020EF03F07E0EF3
:100636000E240326D8A082EF03F0180E0B6E0D369B
:100646000C3608360036013602360E360450005E89
:100656000550D8A0053C015E0650D8A0063C025EB7
:1006660006340E120EA03BEF03F00D8046EF03F0AA
:10067600045000260550D8B0053C01260650D8B0D7
:10068600062802260D900B2E22EF03F06CEF03F0E6
:10069600D8900036013602360E360450005E0550FC
:1006A600D8A0053C015E0650D8A0063C025E063482
:1006B6000E10010B0D26D8B00C2AD8B4082AD8A4DF
:1006C6006CEF03F008320C320D32032AD8B47EEFF9
:1006D60003F00AAE089E0850026E0C50016E0D50D3
:1006E600006E84EF03F0010EC8DC84EF03F0020E07
:1006F6009EDC84EF03F0040E8EDC84EF03F0080E1C
:040706009DDC120064
:10070A0000C008F00B6A0C6A9E0E036E0A6A026A3F
:0C071A00016A006A020E0C6EEBDC12009B
:10072600220E0C6E086A096A0A6A0B6A0C06D8B4AD
:100736001FD0D8900B320A32093208320332023205
:1007460001320032D8A0F2D70C06D8B409D0045032
:1007560008260550092206500A2207500B22EAD71E
:10076600045008260550092206500A2207500B227B
:0207760012006F
:10077800E2D0120E006E000E016E026E036E4DC0C6
:1007880004F0000E056E066E076EC9DFE60E002443
:10079800056E0F0E0120066E000E0220076E4EC079
:1007A80000F0000E016E026E036E003600900136F6
:1007B8000236033605500026065001220750022251
:1007C800010E0024F66E000E0120F76E000E0220C6
:1007D800F86E0900F5CF00F094DF000E046E000EED
:1007E800056E000E066E7E0E076E0FDE00C050F01E
:1007F80001C051F002C052F003C053F049C000F0EC
:100808004AC001F04BC002F04CC003F08EDE50C06D
:1008180004F051C005F052C006F053C007F0B7DE2F
:1008280059DD000E166E000E176E010E186E000EC2
:10083800196E0050165E0150175A0250185A03508C
:10084800195A89D0120E006E000E016E026E036EE8
:100858004DC004F0000E056E066E076E60DFE60EF2
:100868000024056E0F0E0120066E000E0220076E92
:100878004EC000F0000E016E026E036E003600904E
:10088800013602360336055000260650012207506D
:100898000222010E0024F66E000E0120F76E000EF3
:1008A8000220F86E0900F5CF00F02BDF000E046E71
:1008B800000E056E000E066E7E0E076EA6DD00C0E9
:1008C80050F001C051F002C052F003C053F04F5035
:1008D800010F006E016A000E012239DE50C004F0DB
:1008E80051C005F052C006F053C007F08EDD00C0BD
:1008F80050F001C051F002C052F003C053F049C09B
:1009080000F04AC001F04BC002F04CC003F00DDE0D
:1009180050C004F051C005F052C006F053C007F0B3
:1009280036DED8DC00C016F001C017F002C018F09F
:1009380003C019F010D04D50000AD8B41AD74D5042
:10094800010AD8B416D74D50030AD8B412D74D505F
:08095800020AD8B477D712009F
:1009600032D0FF0E1614D66E17C000F018C001F07A
:1009700019C002F0036AFF0E0014D76EF2942FD054
:10098000FF0E1614CE6E17C000F018C001F019C08B
:1009900002F0036AFF0E0014CF6EF29020D0FF0E1B
:1009A0001614B26E17C000F018C001F019C002F0A2
:1009B000036AFF0E0014B36EF29211D0FF0E1614EC
:1009C000CB6EF2920CD04950000ACBE04950010A9C
:1009D000D7E04950030AE3E04950020AEFE0120071
:1009E00016D1120E006E000E016E026E036E49C02B
:1009F00004F0000E056E066E076E95DEE60E00240E
:100A0000056E0F0E0120066E000E0220076E4AC012
:100A100000F0000E016E026E036E0036009001368B
:100A20000236033605500024F66E06500120F76E9C
:100A300007500220F86E0900F5CF03F0010E4914AB
:100A4000026E02C000F0003600900036009000C038
:100A500001F003C000F0015004E000360090FF0FE9
:100A6000FBD70050D512E2D0120E006E000E016EC0
:100A7000026E036E49C004F0000E056E066E076E2E
:100A800052DEE60E0024056E0F0E0120066E000EEB
:100A90000220076E4AC000F0000E016E026E036E67
:100AA0000036009001360236033605500024F66EFB
:100AB00006500120F76E07500220F86E0900F5CFAE
:100AC00003F0010E4914026E02C000F000360090DF
:100AD0000036009000C001F003C000F0015004E0B7
:100AE00000360090FF0FFBD70050CD129FD0120EA2
:100AF000006E000E016E026E036E49C004F0000E1F
:100B0000056E066E076E0FDEE60E0024056E0F0EF4
:100B10000120066E000E0220076E4AC000F0000E93
:100B2000016E026E036E0036009001360236033607
:100B300005500024F66E06500120F76E0750022083
:100B4000F86E0900F5CF03F0010E4914026E02C0E1
:100B500000F0003600900036009000C001F003C0A5
:100B600000F0015004E000360090FF0FFBD700506A
:100B7000CA124BC000F000360090003600900036DC
:100B800000900050CA1252D0120E006E000E016E7C
:100B9000026E036E49C004F0000E056E066E076E0D
:100BA000C2DDE60E0024056E0F0E0120066E000E5B
:100BB0000220076E4AC000F0000E016E026E036E46
:100BC0000036009001360236033605500024F66EDA
:100BD00006500120F76E07500220F86E0900F5CF8D
:100BE00003F0010E4914026E02C000F000360090BE
:100BF0000036009000C001F003C000F0015004E096
:100C000000360090FF0FFBD70050B1120FD04950B3
:100C1000000AD8B4E6D64950010AD8B425D74950BD
:0E0C2000020AD8B464D74950030AAEE01200AD
:100C2E0041C000F042C001F043C002F044C003F0E6
:100C3E0045C004F046C005F047C006F048C007F0B6
:100C4E006BDD00C041F001C042F002C043F003C0B2
:100C5E0044F000C049F001C04AF002C04BF003C09E
:100C6E004CF03EC04DF03FC04EF040C04FF07DDD29
:100C7E003EC049F03FC04AF040C04BF0AADE3EC035
:060C8E0049F067DE1200D0
:100C94000B6A0C6A0A6A0350D8B47FEF06F00A9E06
:100CA400028E860E035E03BE5DEF06F0D8B45DEFE0
:100CB40006F082EF06F0036C080E035CD8A06BEF1D
:100CC40006F0036E0236026A0350D8A4D89074EF7B
:100CD40006F00350D8B474EF06F0D8900232032E15
:100CE4006FEF06F00BBC02A07FEF06F0D8A07FEFF9
:100CF40006F0022AD8B489EF06F0016A8FEF06F0F5
:100D04000B800BAE93EF06F0016A93EF06F0010E31
:100D14000C6E32EC00F095EF06F0000E0C6E95EFC1
:0C0D240006F0FF0E0C6E0250006E120074
:100D30000900F5CFE6FF0006FBE10106F9E112002C
:060D4000156A1A6A120098
:100D4600F00EBD14016E0F0E3014006E005001102F
:100D5600BD6E31C000F0D6DC000E046E000E056ECE
:100D6600480E066E850E076E13DC00C03AF001C011
:100D76003BF002C03CF003C03DF0006A016A026A23
:100D8600036A99EC02F000C004F001C005F002C04D
:100D960006F003C007F0000E006E240E016E740EFE
:100DA600026E950E036ECBEC02F03AC004F03BC027
:100DB60005F03CC006F03DC007F009EC02F067DF25
:100DC60000C031F000C001F00132019E0132019EE7
:100DD600FF0E0114006E00C0BEFF0050BD12020ED1
:100DE6003E6E020E3F6E406A32C000F033C001F024
:100DF60034C002F035C003F099EC02F000C004F0F4
:100E060001C005F002C006F003C007F0000E006E38
:100E1600000E016E000E026E7F0E036ECBEC02F02A
:100E26006EEC01F000C041F001C042F002C043F098
:100E360003C044F036C045F037C046F038C047F02E
:0C0E460039C048F0F1DE9494CA94120008
:100E52000F0EC11230C02AF031C02BF032C02CF07C
:100E620033C02DF034C02EF035C02FF036C026F03E
:100E720037C027F038C028F039C029F030C0E9FF68
:100E820031C0EAFF30C0E1FF31C0E2FF3850EE125C
:100E920026C0E9FF27C0EAFF26C0E1FF27C0E2FF24
:100EA2002950EE122EC0E9FF2FC0EAFF2EC0E1FF4B
:100EB2002FC0E2FF2850EE122AC0E9FF2BC0EAFF42
:100EC2002AC0E1FF2BC0E2FF2850EE12291C006E5F
:100ED2002CC0E9FF2DC0EAFF2CC0E1FF2DC0E2FFCC
:060EE2000050EE161200A4
:100EE8000F0EC11232C01FF033C020F030C01DF009
:100EF80031C01EF036C01BF037C01CF034C021F0E2
:100F080035C022F030C0E9FF31C0EAFF30C0E1FF50
:100F180031C0E2FF3850EE161FC0E9FF20C0EAFFDB
:0E0F28001FC0E1FF20C0E2FF000EEE16120017
:100F36001AEC08F07F0E93167F0E8116949A829A09
:100F4600FCDE0C0E306E190E316E0A0E326E000E7D
:100F5600336E346E356EE80E366E030E376E000E47
:100F6600386E000E396EECDE950E306E0F0E316E59
:100F7600930E326E0F0E336E830E346E0F0E356E79
:100F8600810E366E0F0E376E0F0E386E070E396EE7
:100F96005DDF920E306E0F0E316E950E326E0F0EB5
:100FA600336E800E346E0F0E356E830E366E0F0E58
:100FB600376EC30E386E95DF030E236E246ACA841D
:100FC600330E0B6EBB0E0C6EDF0E0D6E0D2EFED7A6
:100FD6000C2EFCD70B2EFAD700000000CA94FFD7C0
:1010340010EE15F0060E006E010E016E2E0EF66E09
:0E104400100EF76E000EF86E98EC06F012001B
:100FE60000000002010402080310042005400680E8
:100FF60007000001010202040308000000000000CF
:1010060000000000000100000104000002100000C2
:1010160000000000000000010102020403080000B5
:081026000000000000000000C2
:01102E0000C1
:04102F0000000000BD
:0110330000BC
:020000040030CA
:0D000100021F1EFF8181FF0FC00FE00F40A6
:00000001FF
