:10000000FCEF0BF000000000AFEF0BF00000000071
:0C0010000000000000000000DCEF0BF01E
:10001C000B820BAE18EF00F00368026801680068F1
:08002C000A360232FF0E120039
:0E003400026A016A006A086A036A000E12007E
:080042000AAE029E000E12003E
:10004A000B840BAE30EF00F0010E036E026A016AF8
:0A005A00006A0A360232FF0E12009F
:100064000B800BAE3EEF00F0026A0AAEFF0E026E8A
:0C007400016E006E0A360232FF0E120010
:100080000C6A0E6A0250D8A459EF00F001C002F0C9
:1000900000C001F0006A0E860250D8A459EF00F0AB
:1000A00001C002F0016A0E960E880250D8B46BEFC0
:1000B00000F00E50035ED8A4D8A070EF00F0D890E6
:1000C00002BE75EF00F0003601360236032E60EFF7
:1000D00000F070EF00F0010E0C6EACDF78EF00F076
:1000E000020E0C6EB2DF78EF00F0040E0C6EA9DF8A
:0200F0001200FC
:1000F2000CB0BBEF00F00CA261EF01F00E6A000E33
:100102000264D2EF00F0F00E0214D8A49DEF00F0CA
:10011200023A01380F0B02260138F00B016E00384B
:100122000F0B01260038F00B006E08380F0B00266B
:100132000838F00B086E0E84D89002BEB6EF00F0BD
:1001420008360036013602360E2A02BEB6EF00F03D
:1001520008360036013602360E2A02BEB6EF00F02D
:1001620008360036013602360E2A0E50036457EF67
:1001720001F0035E0BBC08AE5CEF01F0D880800E8C
:1001820008640030000E002201220222D8A05CEF97
:1001920001F0023201320032034A61EF01F05CEFFA
:1001A20001F001C002F000C001F008C000F0086ACE
:1001B200000E0E86026409EF01F0F00E0214D8A4BC
:1001C200F1EF00F0023A01380F0B02260138F00B72
:1001D200016E00380F0B01260038F00B006E0E8402
:1001E200D89002BEB6EF00F00036013602360E2A73
:1001F20002BEB6EF00F00036013602360E2A02BE0B
:10020200B6EF00F00036013602360E2AB6EF00F0E5
:1002120001C002F000C001F0006A000E0E960E88C6
:10022200026436EF01F0F00E0214D8A421EF01F0BF
:10023200023A01380F0B02260138F00B016E0E84D0
:10024200D89002BEB6EF00F0013602360E2A02BE88
:10025200B6EF00F0013602360E2A02BEB6EF00F00B
:10026200013602360E2AB6EF00F001C002F0016A32
:10027200000E0E86026466EF01F0F00E0214D8A49E
:1002820045EF01F0023A0E84D89002BEB6EF00F0BC
:1002920002360E2A02BEB6EF00F002360E2A02BE67
:1002A200B6EF00F002360E2AB6EF00F0010E0C6E29
:1002B200CBDE69EF01F0020E0C6EC2DE69EF01F0D7
:1002C200040E0C6EAADE69EF01F0080E0C6EB1DEB0
:0202D200120018
:0802D4000B6A0B86FF0E1200FD
:1002DC000050086E0150006E0250016E0350026E09
:1002EC00036A0B6A0C6A9E0E036E0A6A020E0C6E8F
:0402FC00FADE120014
:10030000086A096A000E0762036405EF02F00250F2
:1003100006180A6E075003267E0ED8A096EF01F04D
:10032000035ED8B009EF02F09AEF01F0035ED8A0A7
:100330000DEF02F0028E068E02C00EF001C00BF02F
:1003400000C00DF000500402F4CF0CF00150050283
:10035000F4CF00F0F3CF08F00402F3500C26F45071
:100360000822000E00220D500502F3500C26F45016
:100370000822000E002202500402F3500826F45016
:10038000002202500502016A000E0122F3500026ED
:10039000F45001220D500602F3500826F4500022BA
:1003A000026A000E012202220B500602F3500026C0
:1003B000F4500122000E02220E500602F3500126D4
:1003C000F450022202BEEDEF01F00836003601368D
:1003D00002360306D8B40DEF02F000EF02F0D88029
:1003E000800E08640030000E002201220222D8A0F4
:1003F00000EF02F0023201320032034A09EF02F04C
:100400000AAE029E000E0FEF02F0010E13DE0FEF98
:1004100002F0020E03DE0FEF02F0040E16DE1200F1
:10042000086A096A100E0C6E013408360936045049
:10043000085E0550D8A0053C095ED8B007D004502E
:1004400008260550D8B0053C0926D890003601365C
:060450000C2EEAD7120099
:100456000B6A0C6A0A6A086A0350D8B4B3EF02F052
:10046600028E9E0E035E03BE3EEF02F0D8B43EEF50
:1004760002F0A3EF02F0036C080E035CD8A070EF45
:1004860002F0036E083600C008F001C000F002C09A
:1004960001F0026A080E035CD8A070EF02F0036E4A
:1004A600083600C008F001C000F0016A080E035CBF
:1004B600D8A070EF02F0036E083600C008F0006A9C
:1004C600080E035CD8A070EF02F0036E0836086AC7
:1004D6000350D8A4D8907CEF02F00350D8B47CEF38
:1004E60002F0D8900232013200320832032E74EF45
:1004F60002F00BBC08A08DEF02F0D8A08DEF02F041
:10050600082AD8B4002AD8B4012AD8B4022A02BECE
:10051600B7EF02F00AAEB3EF02F0021E011E001E94
:10052600081E082AD8B4002AD8B4012AD8B4022A48
:10053600B3EF02F0026A016A006A086AB3EF02F0DA
:100546000B800BAEBCEF02F0026A0AAEBCEF02F003
:10055600026E016E006E086E0A360232BCEF02F0C1
:10056600000E0C6ABDEF02F0010E0C6E78DDBDEFD9
:1005760002F0FF0E0250036E0150026E0050016E33
:060586000850006E120097
:10058C0000C008F00150006E016A026A036A0B6A2F
:10059C000C6A016A026A036A960E036E0A6A00AE5E
:1005AC00DEEF02F0081E001E082AD8B4002A0A8EBC
:1005BC0000C001F008C000F0086A026A5BDD12009E
:1005CC000450000A12E10550000A0FE10650000A1F
:1005DC000CE10750000A09E1FF0E006EFF0E016EE0
:1005EC007F0E026EFF0E036EA4D0086A096A0750D4
:1005FC00D8B491EF03F00350D8B495EF03F0025048
:10060C0006180A6E028E068E0E6A02C008F001C031
:10061C000CF000C00DF004500D5E0550D8A0053C48
:10062C000C5E0650D8A0063C085E086A0C6A0D6A7F
:10063C00D8A028EF03F0D8900232013200320832F1
:10064C00010E0E6E0750035ED8A035EF03F07E0E40
:10065C000E240326D8B099EF03F03BEF03F07E0E87
:10066C000E240326D8A09DEF03F0180E0B6E0D364A
:10067C000C3608360036013602360E360450005E53
:10068C000550D8A0053C015E0650D8A0063C025E81
:10069C0006340E120EA056EF03F00D8061EF03F03E
:1006AC00045000260550D8B0053C01260650D8B0A1
:1006BC00062802260D900B2E3DEF03F087EF03F07A
:1006CC00D8900036013602360E360450005E0550C6
:1006DC00D8A0053C015E0650D8A0063C025E06344C
:1006EC000E10010B0D26D8B00C2AD8B4082AD8A4A9
:1006FC0087EF03F008320C320D32032AD8B499EF8D
:10070C0003F00AAE089E0850026E0C50016E0D509C
:10071C00006E9FEF03F0010ED7DD9FEF03F0020E8A
:10072C0083DC9FEF03F0040E73DC9FEF03F0080EE5
:04073C0086DC120045
:1007400000C008F00B6A0C6A9E0E036E0A6A026A09
:0C075000016A006A020E0C6ECCDC120084
:10075C00220E0C6E086A096A0A6A0B6A0C06D8B477
:10076C001FD0D8900B320A320932083203320232CF
:10077C0001320032D8A0F2D70C06D8B409D00450FC
:10078C0008260550092206500A2207500B22EAD7E8
:10079C00045008260550092206500A2207500B2245
:0207AC00120039
:1007AE0032D0FF0E2214D66E23C000F024C001F00A
:1007BE0025C002F0036AFF0E0014D76EF2942FD0FC
:1007CE00FF0E2214CE6E23C000F024C001F025C00F
:1007DE0002F0036AFF0E0014CF6EF29020D0FF0ECF
:1007EE002214B26E23C000F024C001F025C002F026
:1007FE00036AFF0E0014B36EF29211D0FF0E221494
:10080E00CB6EF2920CD05B50000ACBE05B50010A2B
:10081E00D7E05B50030AE3E05B50020AEFE0120000
:10082E00E80E046E030E056E5BC000F05CC001F0B6
:10083E00F0DD00C02AF0E80E046E030E056E5BC0FC
:10084E0000F05CC001F0E5DD08C000F009C001F069
:10085E00640E046E000E056EDCDD00C020F0640E2A
:10086E00046E000E056E5BC000F05CC001F0D1DDC1
:10087E0008C000F009C001F000C05DF001C05EF0DC
:10088E000A0E046E000E056E5DC000F05EC001F033
:10089E00C0DD00C01FF00A0E046E000E056E5DC0B6
:1008AE0000F05EC001F0B5DD08C000F009C001F037
:0608BE0000C021F0120051
:1008C40034C0E9FF35C0EAFF34C0E1FF35C0E2FFC0
:1008D400000EEE1636C0E1FF37C0E2FF5BC0E6FF54
:1008E400190E5C24F66E190EF76E000EF722000E38
:1008F400F86E000EF8220900F5CF00F038C0E1FFD1
:1009040039C0E2FF001CE66E34C0E9FF35C0EAFFDF
:0E09140034C0E1FF35C0E2FFFF0EEE16120008
:1009220016D1120E006E000E016E026E036E5BC0D7
:1009320004F0000E056E066E076E0FDFB40E002483
:10094200056E180E0120066E000E0220076E5CC0B6
:1009520000F0000E016E026E036E0036009001364A
:100962000236033605500024F66E06500120F76E5B
:1009720007500220F86E0900F5CF03F0010E5B1458
:10098200026E02C000F0003600900036009000C0F7
:1009920001F003C000F0015004E000360090FF0FA8
:1009A200FBD70050D512E2D0120E006E000E016E7F
:1009B200026E036E5BC004F0000E056E066E076EDB
:1009C200CCDEB40E0024056E180E0120066E000E59
:1009D2000220076E5CC000F0000E016E026E036E14
:1009E2000036009001360236033605500024F66EBA
:1009F20006500120F76E07500220F86E0900F5CF6D
:100A020003F0010E5B14026E02C000F0003600908B
:100A12000036009000C001F003C000F0015004E075
:100A220000360090FF0FFBD70050CD129FD0120E60
:100A3200006E000E016E026E036E5BC004F0000ECB
:100A4200056E066E076E89DEB40E0024056E180E62
:100A52000120066E000E0220076E5CC000F0000E40
:100A6200016E026E036E00360090013602360336C6
:100A720005500024F66E06500120F76E0750022042
:100A8200F86E0900F5CF03F0010E5B14026E02C08E
:100A920000F0003600900036009000C001F003C064
:100AA20000F0015004E000360090FF0FFBD7005029
:100AB200CA125DC000F00036009000360090003689
:100AC20000900050CA1252D0120E006E000E016E3B
:100AD200026E036E5BC004F0000E056E066E076EBA
:100AE2003CDEB40E0024056E180E0120066E000EC8
:100AF2000220076E5CC000F0000E016E026E036EF3
:100B02000036009001360236033605500024F66E98
:100B120006500120F76E07500220F86E0900F5CF4B
:100B220003F0010E5B14026E02C000F0003600906A
:100B32000036009000C001F003C000F0015004E054
:100B420000360090FF0FFBD70050B1120FD05B5060
:100B5200000AD8B4E6D65B50010AD8B425D75B5058
:0E0B6200020AD8B464D75B50030AAEE012005A
:100B7000E8D0120E006E000E016E026E036E5FC0B2
:100B800004F0000E056E066E076EE8DDB40E00245C
:100B9000056E180E0120066E000E0220076E60C062
:100BA00000F0000E016E026E036E003600900136FA
:100BB0000236033605500026065001220750022255
:100BC000010E0024F66E000E0120F76E000E0220CA
:100BD000F86E0900F5CF00F0B3DD000E046E000ED4
:100BE000056E000E066E7E0E076E80EC01F000C0F2
:100BF00062F001C063F002C064F003C065F05BC046
:100C000000F05CC001F05DC002F05EC003F06EEC6D
:100C100001F062C004F063C005F064C006F065C076
:100C200007F0D4DC18DC000E226E000E236E010EDD
:100C3000246E000E256E0050225E0150235A025091
:100C4000245A0350255A8DD0120E006E000E016EEC
:100C5000026E036E5FC004F0000E056E066E076E36
:100C60007DDDB40E0024056E180E0120066E000E08
:100C70000220076E60C000F0000E016E026E036E6F
:100C80000036009001360236033605500026065025
:100C9000012207500222010E0024F66E000E0120F0
:100CA000F76E000E0220F86E0900F5CF00F048DD67
:100CB000000E046E000E056E000E066E7E0E076EB0
:100CC00080EC01F000C062F001C063F002C064F08B
:100CD00003C065F06150010F006E016A000E012231
:100CE00055DC62C004F063C005F064C006F065C066
:100CF00007F080EC01F000C062F001C063F002C0B8
:100D000064F003C065F05BC000F05CC001F05DC042
:100D100002F05EC003F06EEC01F062C004F063C04C
:100D200005F064C006F065C007F050DC2BEC02F063
:100D300000C022F001C023F002C024F003C025F05F
:100D400010D05F50000AD8B414D75F50010AD8B44D
:100D500010D75F50030AD8B40CD75F50020AD8B43A
:040D600073D7120033
:100D640034C0E9FF35C0EAFF34C0E1FF35C0E2FF1B
:100D7400000EEE1636C0E1FF37C0E2FF5BC0E6FFAF
:100D840038C0E1FF39C0E2FF5C1CE66E34C0E9FF05
:100D940035C0EAFF34C0E1FF35C0E2FFFF0EEE16B6
:020DA40012003B
:100DA6000B6A0C6A0A6A0350D8B408EF07F00A9E69
:100DB600028E860E035E03BEE6EF06F0D8B4E6EFBB
:100DC60006F00BEF07F0036C080E035CD8A0F4EFF7
:100DD60006F0036E0236026A0350D8A4D890FDEFDF
:100DE60006F00350D8B4FDEF06F0D8900232032E79
:100DF600F8EF06F00BBC02A008EF07F0D8A008EF4A
:100E060007F0022AD8B412EF07F0016A18EF07F0CC
:100E16000B800BAE1CEF07F0016A1CEF07F0010E0A
:100E26000C6E32EC00F01EEF07F0000E0C6E1EEF9B
:0C0E360007F0FF0E0C6E0250006E120060
:100E420053C000F054C001F055C002F056C003F088
:100E520057C004F058C005F059C006F05AC007F058
:100E62007CDC00C053F001C054F002C055F003C056
:100E720056F000C05BF001C05CF002C05DF003C040
:100E82005EF050C05FF051C060F052C061F06FDEA2
:100E920050C05BF051C05CF052C05DF041DD50C00B
:060EA2005BF084DC12008D
:100EA80050C05BF051C05CF0BEDC18D0200E5B6E09
:100EB80021C05CF003DD1ED0100E5B6E1FC05CF01D
:100EC800FDDC18D0080E5B6E20C05CF0F7DC12D099
:100ED800040E5B6E2AC05CF0F1DC0CD02650000AD0
:100EE800E5E02650010AE8E02650020AEBE0265029
:100EF800030AEEE0E80E046E030E056E50C000F023
:100F080051C001F010EC02F00050011003E0030E94
:100F1800536E25D0640E046E000E056E50C000F0AE
:100F280051C001F010EC02F00050011003E0020E75
:100F3800526E13D00A0E046E000E056E50C000F0FB
:100F480051C001F010EC02F00050011003E0010E56
:100F5800006E01D0006A00C052F052C053F0800EFB
:100F6800006E800E53BE7F0E005C02E15350265C7B
:100F780006E22650010F006E000E016E02D0006AD4
:080F8800016A00C026F012000E
:100F90004ED051B002D0F19001D0F18051B002D0CA
:100FA000A29001D0A2805BD051B002D0A29201D019
:100FB000A28255D051B002D0F19401D0F18451B049
:100FC00002D0A29401D0A2844AD051B002D09F9600
:100FD00001D09F8651B002D0A29601D0A2863FD008
:100FE00051B002D09F9801D09F8851B002D0A298F2
:100FF00001D0A28834D051B002D09F9A01D09F8AEC
:101000002ED051B002D0F09C01D0F08C51B002D063
:10101000A29C01D0A28C23D051B002D0F09E01D06E
:10102000F08E51B002D0A29E01D0A28E18D05050A6
:10103000000AAFE05050010AB7E05050020ABAE08F
:101040005050030AC2E05050040ACAE05050050A4A
:10105000D2E05050060AD5E05050070ADDE01200F9
:101060000B6A0A6A096A00500402F4CF09F0F3CF50
:1010700008F001500502F4CF0BF0F3CF0AF0005056
:101080000502F3500926F4500A22E86A0B220150A7
:101090000402F3500926F4500A22E86A0B2208C021
:1010A00000F009C001F00AC002F00BC003F012000A
:1010B000506A516A526A3CC0E9FF3DC0EAFF3CC039
:1010C000E1FF3DC0E2FF3050EE1231C0E9FF32C017
:1010D000EAFF31C0E1FF32C0E2FF3350EE123EC002
:1010E000E9FF3FC0EAFF3EC0E1FF3FC0E2FF3050F2
:1010F000EE123CC0E9FF3DC0EAFF3CC0E1FF3DC04D
:10110000E2FF3050EE12331C006E40C0E9FF41C0D8
:10111000EAFF40C0E1FF41C0E2FF0050EE1631C0DF
:10112000E9FF32C0EAFF31C0E1FF32C0E2FF3350D5
:10113000EE12516A030E515C38E251C001F0010E0B
:10114000006E015004E000360090FF0FFBD7001E38
:1011500031C0E9FF32C0EAFF31C0E1FF32C0E2FF37
:101160000050EE163EC0E9FF3FC0EAFF3050EE14DB
:10117000016E01C052F00150301801E016D051C08C
:1011800001F0010E006E015004E000360090FF0FE8
:10119000FBD731C0E9FF32C0EAFF31C0E1FF32C006
:1011A000E2FF0050EE12512AC5D7301C006E3CC041
:1011B000E9FF3DC0EAFF3CC0E1FF3DC0E2FF005057
:1011C000EE16331C006E31C0E9FF32C0EAFF31C0B9
:1011D000E1FF32C0E2FF0050EE16301C006E3EC050
:1011E000E9FF3FC0EAFF3EC0E1FF3FC0E2FF005021
:1011F000EE16301C006E3CC0E9FF3DC0EAFF3CC06B
:10120000E1FF3DC0E2FF0050EE1640C0E9FF41C0E3
:10121000EAFF40C0E1FF41C0E2FF3350EE125150FF
:10122000030A4BE03DD00D0E5124F66E190EF76EF9
:10123000000EF722000EF86E000EF8220900F5CF1E
:1012400050F03BD0100E5124F66E190EF76E000EC2
:10125000F722000EF86E000EF8220900F5CF50F0CC
:101260002CD0130E5124F66E190EF76E000EF722D5
:10127000000EF86E000EF8220900F5CF50F01DD0D8
:10128000160E5124F66E190EF76E000EF722000EA0
:10129000F86E000EF8220900F5CF50F00ED00DD0F8
:1012A00052500E0AC0E052500D0ACCE052500B0AC8
:1012B000D8E05250070AE4E0F2D72D520AE02D5050
:1012C000501807E02DC051F050C02DF051C050F023
:1012D00010D02D5206E1505204E050C02DF0006AAB
:1012E00008D02D50501802E1006A03D050C000F021
:0412F00000D0120018
:0812F400F28EF28CD08E120084
:1012FC0026C050F0262A14D0080E5B6E860E5C6E4B
:10130C002BDD18D0100E5B6EAB0E5C6E25DD12D093
:10131C00200E5B6EA10E5C6E1FDD0CD0266A0AD00F
:10132C005050000AE9E05050010AECE05050020A1B
:06133C00EFE0F4D71200FF
:1013420050C0E9FF51C0EAFFEE50EE1030E050C04D
:10135200E9FF51C0EAFFEECF00F0EECF01F0640EDC
:10136200046E000E056E10EC02F008C000F009C019
:1013720001F00050011003E0010E006E02D0290EB0
:10138200006E50C0E9FF51C0EAFF0050EE5C006EF3
:10139200000E00BEFF0EEE58016E50C0E1FF51C0BC
:1013A200E2FF00C0E6FF01C0E6FF006A02D0010EC4
:0413B200006E1200B7
:1013B600426A2752D8B46DD078DE00C042F09382DC
:1013C600938461D01ED02B5208E0295206E0010E0C
:1013D600286E2C6ACA84828A00D037D02E6A2F6A79
:1013E60034D02EC000F02FC001F00A0E046E000E9D
:1013F600056E33DE425000242E6E000E01202F6E45
:1014060024D04250730ADFE04250680AE7E04250B7
:10141600300AE7E04250310AE4E04250320AE1E0A5
:101426004250330ADEE04250340ADBE04250350ACD
:10143600D8E04250360AD5E04250370AD2E0425050
:10144600380ACFE04250390ACCE023D0030E275C9D
:101456000DE3276A2E0E506E000E516E6FDF00529E
:1014660005E0829ACA94010E2C6E00D005D00AD0EF
:10147600286ACA94829A06D04250730AF8E042500B
:10148600680AF6E006D02850000A9CE02850010AB7
:10149600DDE02850010A0DE12B5205E0295203E058
:1014A600010E006E01D0006A005203E1286ACA9458
:1014B600828A2C5202E01FDF05D02EC050F02FC0CA
:0814C60051F0EFDC76D71200B3
:1014CE000F0EC1122B6A296A0EDF93829384F0905D
:1014DE00F092060E506E516A54DD070E506E516A30
:0C14EE0050DDF19AF198F086F0881200B1
:1014FA00FCDE1FD0F294020E506E43C051F043DD61
:10150A00F28A23D09E90506A43C051F03CDD9D8000
:10151A001CD09E92010E506E43C051F034DD9D8264
:10152A0014D0A192010E506E43C051F02CDDA0825E
:10153A000CD04250000ADEE04250010AE3E0425079
:0C154A00020AE7E04250030AECE0120045
:10155600F00EBD14016E0F0E4214006E0050011005
:10156600BD6E43C000F0A0EC03F0000E046E000E4A
:10157600056E480E066E850E076EE6EC02F000C09C
:101586004CF001C04DF002C04EF003C04FF0006AAF
:10159600016A026A036A6EEC01F000C004F001C041
:1015A60005F002C006F003C007F0000E006E240E20
:1015B600016E740E026E950E036EE6EC02F04CC0E0
:1015C60004F04DC005F04EC006F04FC007F080ECA9
:1015D60001F0D3EC06F000C043F000C001F0013288
:1015E600019E0132019EFF0E0114006E00C0BEFF77
:1015F6000050BD12020E506E020E516E526A44C069
:1016060000F045C001F046C002F047C003F06EECA2
:1016160001F000C004F001C005F002C006F003C0EE
:1016260007F0000E006E000E016E000E026E7F0EB9
:10163600036EE6EC02F02BEC02F000C053F001C0A2
:1016460054F002C055F003C056F048C057F049C0E8
:1016560058F04AC059F04BC05AF021EC07F0949468
:04166600CA94120010
:10166A000F0EC11244C034F045C035F042C03AF002
:10167A0043C03BF048C038F049C039F046C036F0A4
:10168A0047C037F042C0E9FF43C0EAFF42C0E1FF6A
:10169A0043C0E2FF4A50EE1634C0E9FF35C0EAFF04
:0E16AA0034C0E1FF35C0E2FF000EEE16120064
:1016B8000F0EC11242C03CF043C03DF044C040F0A0
:1016C80045C041F046C03EF047C03FF048C031F049
:1016D80049C032F04AC030F04BC033F042C0E9FF95
:1016E80043C0EAFF42C0E1FF43C0E2FF4A50EE12A6
:1016F80031C0E9FF32C0EAFF31C0E1FF32C0E2FF8A
:101708003350EE123EC0E9FF3FC0EAFF3EC0E1FFA2
:101718003FC0E2FF3050EE123CC0E9FF3DC0EAFF97
:101728003CC0E1FF3DC0E2FF3050EE12331C006EBA
:1017380040C0E9FF41C0EAFF40C0E1FF41C0E2FF0D
:061748000050EE16120035
:10174E000900F5CFE6FF0006FBE10106F9E1120004
:10175E0000C01EF001C01DF002C01CF003C01BF043
:10176E0004C01AF0F2CF01F00132019E0132019E47
:10177E0001A010D0F294FF0E2214D66E23C000F0FA
:10178E0024C001F025C002F0036AFF0E0014D76ECC
:10179E00F294272A1EC000F01DC001F01CC002F0FA
:0A17AE001BC003F01AC004F0110084
:1017B80000C019F001C018F0156ED8CF16F0E0CFB0
:1017C80017F0F0CF01F001B02B70F0CF01F001322B
:1017D800019E01A002D0010E29161750E06E165086
:1017E800D86E153A153819C000F018C001F010006D
:1017F80092EC0CF07F0E93167F0E8116949A829AC3
:101808000C0E426E190E436E0A0E446E000E456EA3
:10181800466E476EE80E486E030E496E000E4A6E1D
:10182800000E4B6E94DE950E426E0F0E436E930EB5
:10183800446E0F0E456E830E466E0F0E476E810E78
:10184800486E0F0E496E0F0E4A6E070E4B6E30DF54
:101858003ADE920E426E0F0E436E950E446E0F0ED8
:10186800456E800E466E0F0E476E830E486E0F0E45
:10187800496EC30E4A6EF5DE506A050E516E526A05
:10188800FA0E536E000E546E556E566EE80E576E75
:10189800030E586E000E596E000E5A6E21EC07F0BA
:0C18A800426A010E436E25DE82DDFFD790
:1019240010EE1FF0110E006E010E016EFC0EF66E2D
:0E193400180EF76E000EF86EA7EC0BF0120006
:1018B4000000000201040208031004200540068011
:1018C40007000001010202040308000000000000F8
:1018D40000000000000100000104000002100000EC
:1018E40000000000000000010102020403080000DF
:0818F4000000000000000000EC
:0118FC0000EB
:0118FD0000EA
:0118FE0000E9
:0418FF0000000000E5
:0119030000E3
:0119040000E2
:0119050000E1
:0119060000E0
:0119070000DF
:0119080001DD
:0119090000DD
:01190A0000DC
:02190B005A0080
:0C190D00733068373839343536313233E6
:0A191900C0F9A4B0999282F8809002
:020000040030CA
:0D000100021F1EFF8181FF0FC00FE00F40A6
:00000001FF
