:10000000F3EF00F00000000000EF00F0000000003F
:0A0010000000000000000000F3D71C
:04001C0000001200CE
:10002000080E0C6E230E0D6E0D2EFED70C2EFCD777
:020030001200BC
:0C003200100E0D6E0D2EFED70000120007
:10003E0036BE02D0829601D0828636BC02D0829421
:10004E0001D0828436BA02D0829201D0828236B832
:10005E0002D0829001D082802FB002D0828801D04F
:10006E008298828AD4DF829A36B602D0829601D0E6
:10007E00828636B402D0829401D0828436B202D007
:10008E00829201D0828236B002D0829001D08280DC
:10009E002FB002D0828801D08298828AB8DF829AED
:0C00AE002FA002D0B6DF01D0BDDF120091
:0C00BA002F9035C036F0BEDF2F80120002
:1000C6000900F5CFE6FF0006FBE10106F9E11200A3
:1000D600949A94989490949294949496829A8298EE
:1000E600829682948292829098DF97DF96DF828250
:1000F6008280828A90DF829A90DF828A8CDF829A5F
:100106008CDF828A88DF829A88DF8290828A83DF08
:10011600829A83DF828A7FDF829A82928286828AAD
:100126007ADF829A7ADF82968280828A74DF829A66
:100136008290828A70DF829A70DF828A6CDF829A6E
:100146008280828A68DF829A68DF8290828A63DF91
:10015600829A8286828482828280828A5CDF829A06
:060166005CDF2F80120097
:10016C000FD0800E306E19D0C00E306E16D0940E9B
:10017C00306E13D0D40E306E10D0800E306E0DD089
:10018C003050010AEEE03050020AEEE03050030A23
:10019C00EEE03050040AEEE0F0D73104006E30503F
:1001AC00002600C030F000C036F043DF2F90346AD8
:1001BC0034503224E96E000E3320EA6EEE520BE01E
:1001CC0034503224E96E000E3320EA6EEECF35F057
:0A01DC006EDF342AEDD72F801200E9
:1001E6005CEC01F0C00E946E73DF0C0E366E24DFED
:1001F600010E2D6E000E2E6E800E006E800E2E18D5
:10020600005C02E12D500C0845E3010E306E2DC056
:1002160031F0270E326E000E336EA5DF020E0B6E26
:10022600040E0C6EBA0E0D6E0D2EFED70C2EFCD7DC
:100236000B2EFAD70000010E306E2DC031F0210EC4
:10024600326E000E336E8FDF020E306E2D50010FB0
:10025600316E150E326E000E336E85DF020E0B6E9A
:10026600040E0C6EBA0E0D6E0D2EFED70C2EFCD79C
:100276000B2EFAD70000020E306E2D50010F316E94
:100286001B0E326E000E336E6EDF020E2D26000E32
:080296002E22B2D7ADD7FFD72D
:1002B80010EE15F01A0E006E010E016E9E0EF66E0F
:0E02C800020EF76E000EF86E63EC00F01200EE
:06029E0041686D6564007B
:0602A400202020202000B4
:0602AA00202020202000AE
:0602B00041686D65640069
:0202B600000046
:020000040030CA
:0D000100021F1EFF8381FF0FC00FE00F40A4
:00000001FF
