:1000000003EF01F00000000000EF00F0000000002E
:0A0010000000000000000000F3D71C
:0C001C00100E0D6E0D2EFED7000012001D
:10002800080E0C6E230E0D6E0D2EFED70C2EFCD76F
:020038001200B4
:04003A0000001200B0
:10003E001FBE02D0829601D082861FBC02D082944F
:10004E0001D082841FBA02D0829201D082821FB860
:10005E0002D0829001D0828015B002D0828801D069
:10006E008298828AE3DF829A1FB602D0829601D0EE
:10007E0082861FB402D0829401D082841FB202D035
:10008E00829201D082821FB002D0829001D08280F3
:10009E0015B002D0828801D08298828AC7DF829AF8
:0C00AE0015A002D0BADF01D0B2DF1200B2
:1000BA000FD0800E1C6E19D0C00E1C6E16D0940E76
:1000CA001C6E13D0D40E1C6E10D0800E1C6E0DD078
:1000DA001C50010AEEE01C50020AEEE01C50030A12
:1000EA00EEE01C50040AEEE0F0D71D04006E1C502E
:1000FA00002600C01CF0158000C01FF09BDF159081
:0A010A001EC01FF097DF15801200E1
:0C01140015901CC01FF091DF1580120038
:10012000949A94989490949294949496829A8298A3
:10013000829682948292829077DF76DF75DF828268
:100140008280828A7ADF829A6FDF828A76DF829A61
:100150006BDF828A72DF829A67DF8290828A6DDF2C
:10016000829A62DF828A69DF829A82928286828A9A
:1001700064DF829A59DF82968280828A5EDF829A69
:100180008290828A5ADF829A4FDF828A56DF829A71
:100190008280828A52DF829A47DF8290828A4DDF94
:1001A000829A8286828482828280828A46DF829AD2
:0601B0003BDF1580120088
:1001B600400E1F6E41DF1B6A1B5007080FE31B50E2
:1001C6001824F66E000E1920F76E000E1A20F86E2F
:1001D6000900F5CF1CF09BDF1B2AEED7020E1F6E1F
:1001E6002BDF16C01CF017C01DF01E6A63DF12005D
:1001F6000900F5CFE6FF0006FBE10106F9E1120072
:100206008CDF0C0E1F6E18DF010E166E020E176EB7
:10021600B20E186E020E196E000E1A6EC9DF020EAD
:100226000B6E040E0C6EBA0E0D6E0D2EFED70C2E36
:10023600FCD70B2EFAD70000010E166E020E176EB3
:10024600AA0E186E020E196E000E1A6EB1DF020E9D
:100256000B6E040E0C6EBA0E0D6E0D2EFED70C2E06
:10026600FCD70B2EFAD70000010E166E020E176E83
:10027600A20E186E020E196E000E1A6E99DF020E8D
:100286000B6E040E0C6EBA0E0D6E0D2EFED70C2ED6
:0C029600FCD70B2EFAD70000B7D7FFD71B
:0802A200001E01190515000002
:0802AA0000000018041400001C
:0802B200000000000010000034
:020000040030CA
:0D000100021F1EFF8381FF0FC00FE00F40A4
:00000001FF
