:10000000CCEF00F00000000000EF00F00000000066
:0A0010000000000000000000F3D71C
:10001C000134083609360450085E0550D8A0053C5A
:10002C00095E003601360F0E0C6E013408360936A7
:10003C00045000A006D0085E0550D8A0053C095E0F
:10004C0005D008260550D8B0053C092600360136E7
:10005C000C2EEBD700B006D0045008260550D8B0B3
:08006C00053C0926000012000A
:100074000450000A08E10550000A05E1FF0E006E75
:100084007F0E016E57D00D6A096A086A015000108C
:10009400D8B4000C015005180A6E0ABE0D1E0B6A76
:1000A40005AE05D0041E051E042AD8B4052A01AEE7
:1000B40005D0001E011E002AD8B4012A01500510E3
:1000C4000A6E0ABE10D0A8DF0BB020D00DAE000C13
:1000D400001E011E002AD8B4012A081E091E082A7F
:1000E400D8B4092A000C05AE0DD001BE07D00150CA
:1000F400096E0050086E016A006AE8D7016A006A56
:10010400002A000C011E001E0B2ADDD7082AD8B4D1
:10011400092A0450085CD8A4D9D70550095CD8A48E
:10012400D5D7096A086A002AD8B4012A01AECED705
:060134000000FF0C1200A8
:10013A001DC0E9FF1EC0EAFF000EEE14006EEECFEE
:10014A0001F0000E01161DC0E1FF1EC0E2FF00C053
:10015A00E6FF01C0E6FF1FC0E9FF20C0EAFF215009
:10016A00EE14006EEECF01F0000E01161FC0E1FF83
:0E017A0020C0E2FF00C0E6FF01C0E6FF120059
:100188000900F5CFE6FF0006FBE10106F9E11200E0
:10019800156A166A176A186A196A1A6A950E1D6E20
:1001A8000F0E1E6E920E1F6E0F0E206EC30E216E66
:1001B800C0DF1B6A1C6A800E006E800E1C18005C73
:1001C80002E11B503208D8A09BD0200E806E0A0E88
:1001D800046E000E056E19C000F01AC001F046DF6B
:1001E80008C000F009C001F0480E0024F66E030EA6
:1001F8000120F76E000EF86E000E01BEFF0EF82209
:100208000900F5CF83FF050E0C6E520E0D6E0D2EF4
:10021800FED70C2EFCD700000000100E806E0A0ED0
:10022800046E000E056E19C000F01AC001F01EDF42
:10023800480E0024F66E030E0120F76E000EF86ECD
:10024800000E01BEFF0EF8220900F5CF83FF050E50
:100258000C6E520E0D6E0D2EFED70C2EFCD7000024
:100268000000080E806E0A0E046E000E056E15C0A2
:1002780000F016C001F0FADE08C000F009C001F075
:10028800480E0024F66E030E0120F76E000EF86E7D
:10029800000E01BEFF0EF8220900F5CF83FF050E00
:1002A8000C6E520E0D6E0D2EFED70C2EFCD70000D4
:1002B8000000040E806E0A0E046E000E056E15C056
:1002C80000F016C001F0D2DE480E0024F66E030ED0
:1002D8000120F76E000EF86E000E01BEFF0EF82228
:1002E8000900F5CF83FF050E0C6E520E0D6E0D2E14
:1002F800FED70C2EFCD7000000001B4A1C2A5BD737
:10030800194A1A2A000E1A1802E13C0E191804E1BB
:10031800196A1A6A154A162A000E161802E13C0EC6
:10032800151804E1156A166A174A182A000E1818D3
:1003380002E1180E171802E1176A186A3AD7FFD7B0
:0A0348003F065B4F666D7D077F6F77
:020000040030CA
:0D000100021F1EFF8381FF0FC00FE00F40A4
:00000001FF
